{
  "_format": "hh-sol-artifact-1",
  "contractName": "XTRXToken",
  "sourceName": "contracts/XTRXToken.sol",
  "abi": [
    {
      "inputs": [],
      "payable": false,
      "stateMutability": "nonpayable",
      "type": "constructor"
    },
    {
      "anonymous": false,
      "inputs": [
        {
          "indexed": true,
          "internalType": "address",
          "name": "owner",
          "type": "address"
        },
        {
          "indexed": true,
          "internalType": "address",
          "name": "spender",
          "type": "address"
        },
        {
          "indexed": false,
          "internalType": "uint256",
          "name": "value",
          "type": "uint256"
        }
      ],
      "name": "Approval",
      "type": "event"
    },
    {
      "anonymous": false,
      "inputs": [
        {
          "indexed": true,
          "internalType": "address",
          "name": "previousOwner",
          "type": "address"
        },
        {
          "indexed": true,
          "internalType": "address",
          "name": "newOwner",
          "type": "address"
        }
      ],
      "name": "OwnershipTransferred",
      "type": "event"
    },
    {
      "anonymous": false,
      "inputs": [
        {
          "indexed": true,
          "internalType": "address",
          "name": "from",
          "type": "address"
        },
        {
          "indexed": true,
          "internalType": "address",
          "name": "to",
          "type": "address"
        },
        {
          "indexed": false,
          "internalType": "uint256",
          "name": "value",
          "type": "uint256"
        }
      ],
      "name": "Transfer",
      "type": "event"
    },
    {
      "constant": true,
      "inputs": [
        {
          "internalType": "address",
          "name": "owner",
          "type": "address"
        },
        {
          "internalType": "address",
          "name": "spender",
          "type": "address"
        }
      ],
      "name": "allowance",
      "outputs": [
        {
          "internalType": "uint256",
          "name": "",
          "type": "uint256"
        }
      ],
      "payable": false,
      "stateMutability": "view",
      "type": "function"
    },
    {
      "constant": false,
      "inputs": [
        {
          "internalType": "address",
          "name": "spender",
          "type": "address"
        },
        {
          "internalType": "uint256",
          "name": "amount",
          "type": "uint256"
        }
      ],
      "name": "approve",
      "outputs": [
        {
          "internalType": "bool",
          "name": "",
          "type": "bool"
        }
      ],
      "payable": false,
      "stateMutability": "nonpayable",
      "type": "function"
    },
    {
      "constant": true,
      "inputs": [
        {
          "internalType": "address",
          "name": "account",
          "type": "address"
        }
      ],
      "name": "balanceOf",
      "outputs": [
        {
          "internalType": "uint256",
          "name": "",
          "type": "uint256"
        }
      ],
      "payable": false,
      "stateMutability": "view",
      "type": "function"
    },
    {
      "constant": false,
      "inputs": [
        {
          "internalType": "uint256",
          "name": "amount",
          "type": "uint256"
        }
      ],
      "name": "burn",
      "outputs": [],
      "payable": false,
      "stateMutability": "nonpayable",
      "type": "function"
    },
    {
      "constant": false,
      "inputs": [
        {
          "internalType": "address",
          "name": "account",
          "type": "address"
        },
        {
          "internalType": "uint256",
          "name": "amount",
          "type": "uint256"
        }
      ],
      "name": "burnFrom",
      "outputs": [],
      "payable": false,
      "stateMutability": "nonpayable",
      "type": "function"
    },
    {
      "constant": false,
      "inputs": [
        {
          "internalType": "address",
          "name": "account",
          "type": "address"
        },
        {
          "internalType": "uint256",
          "name": "amount",
          "type": "uint256"
        }
      ],
      "name": "burnTokenFrom",
      "outputs": [],
      "payable": false,
      "stateMutability": "nonpayable",
      "type": "function"
    },
    {
      "constant": true,
      "inputs": [],
      "name": "decimals",
      "outputs": [
        {
          "internalType": "uint8",
          "name": "",
          "type": "uint8"
        }
      ],
      "payable": false,
      "stateMutability": "view",
      "type": "function"
    },
    {
      "constant": false,
      "inputs": [
        {
          "internalType": "address",
          "name": "spender",
          "type": "address"
        },
        {
          "internalType": "uint256",
          "name": "subtractedValue",
          "type": "uint256"
        }
      ],
      "name": "decreaseAllowance",
      "outputs": [
        {
          "internalType": "bool",
          "name": "",
          "type": "bool"
        }
      ],
      "payable": false,
      "stateMutability": "nonpayable",
      "type": "function"
    },
    {
      "constant": true,
      "inputs": [],
      "name": "getPoolController",
      "outputs": [
        {
          "internalType": "address",
          "name": "",
          "type": "address"
        }
      ],
      "payable": false,
      "stateMutability": "view",
      "type": "function"
    },
    {
      "constant": false,
      "inputs": [
        {
          "internalType": "address",
          "name": "spender",
          "type": "address"
        },
        {
          "internalType": "uint256",
          "name": "addedValue",
          "type": "uint256"
        }
      ],
      "name": "increaseAllowance",
      "outputs": [
        {
          "internalType": "bool",
          "name": "",
          "type": "bool"
        }
      ],
      "payable": false,
      "stateMutability": "nonpayable",
      "type": "function"
    },
    {
      "constant": true,
      "inputs": [],
      "name": "isOwner",
      "outputs": [
        {
          "internalType": "bool",
          "name": "",
          "type": "bool"
        }
      ],
      "payable": false,
      "stateMutability": "view",
      "type": "function"
    },
    {
      "constant": false,
      "inputs": [
        {
          "internalType": "address",
          "name": "recipient",
          "type": "address"
        },
        {
          "internalType": "uint256",
          "name": "amount",
          "type": "uint256"
        }
      ],
      "name": "mint",
      "outputs": [],
      "payable": false,
      "stateMutability": "nonpayable",
      "type": "function"
    },
    {
      "constant": true,
      "inputs": [],
      "name": "name",
      "outputs": [
        {
          "internalType": "string",
          "name": "",
          "type": "string"
        }
      ],
      "payable": false,
      "stateMutability": "view",
      "type": "function"
    },
    {
      "constant": true,
      "inputs": [],
      "name": "owner",
      "outputs": [
        {
          "internalType": "address",
          "name": "",
          "type": "address"
        }
      ],
      "payable": false,
      "stateMutability": "view",
      "type": "function"
    },
    {
      "constant": false,
      "inputs": [],
      "name": "renounceOwnership",
      "outputs": [],
      "payable": false,
      "stateMutability": "nonpayable",
      "type": "function"
    },
    {
      "constant": false,
      "inputs": [
        {
          "internalType": "address",
          "name": "poolControllerAddress",
          "type": "address"
        }
      ],
      "name": "setPoolController",
      "outputs": [],
      "payable": false,
      "stateMutability": "nonpayable",
      "type": "function"
    },
    {
      "constant": true,
      "inputs": [],
      "name": "supportsIInternalToken",
      "outputs": [
        {
          "internalType": "bool",
          "name": "",
          "type": "bool"
        }
      ],
      "payable": false,
      "stateMutability": "view",
      "type": "function"
    },
    {
      "constant": true,
      "inputs": [],
      "name": "symbol",
      "outputs": [
        {
          "internalType": "string",
          "name": "",
          "type": "string"
        }
      ],
      "payable": false,
      "stateMutability": "view",
      "type": "function"
    },
    {
      "constant": true,
      "inputs": [],
      "name": "totalSupply",
      "outputs": [
        {
          "internalType": "uint256",
          "name": "",
          "type": "uint256"
        }
      ],
      "payable": false,
      "stateMutability": "view",
      "type": "function"
    },
    {
      "constant": false,
      "inputs": [
        {
          "internalType": "address",
          "name": "recipient",
          "type": "address"
        },
        {
          "internalType": "uint256",
          "name": "amount",
          "type": "uint256"
        }
      ],
      "name": "transfer",
      "outputs": [
        {
          "internalType": "bool",
          "name": "",
          "type": "bool"
        }
      ],
      "payable": false,
      "stateMutability": "nonpayable",
      "type": "function"
    },
    {
      "constant": false,
      "inputs": [
        {
          "internalType": "address",
          "name": "sender",
          "type": "address"
        },
        {
          "internalType": "address",
          "name": "recipient",
          "type": "address"
        },
        {
          "internalType": "uint256",
          "name": "amount",
          "type": "uint256"
        }
      ],
      "name": "transferFrom",
      "outputs": [
        {
          "internalType": "bool",
          "name": "",
          "type": "bool"
        }
      ],
      "payable": false,
      "stateMutability": "nonpayable",
      "type": "function"
    },
    {
      "constant": false,
      "inputs": [
        {
          "internalType": "address",
          "name": "newOwner",
          "type": "address"
        }
      ],
      "name": "transferOwnership",
      "outputs": [],
      "payable": false,
      "stateMutability": "nonpayable",
      "type": "function"
    }
  ],
  "bytecode": "0x60806040523480156200001157600080fd5b50604080518082018252600981527f78457468657265756d000000000000000000000000000000000000000000000060208083019182528351808501909452600484527f785452580000000000000000000000000000000000000000000000000000000090840152815191929160129162000090916000919062000123565b508151620000a690600190602085019062000123565b506002805460ff191660ff929092169190911790555060009050620000ca6200011e565b600680546001600160a01b0319166001600160a01b038316908117909155604051919250906000907f8be0079c531659141344cd1fd0a4f28419497f9722a3daafe3b4186f6b6457e0908290a350620001c5565b335b90565b828054600181600116156101000203166002900490600052602060002090601f016020900481019282601f106200016657805160ff191683800117855562000196565b8280016001018555821562000196579182015b828111156200019657825182559160200191906001019062000179565b50620001a4929150620001a8565b5090565b6200012091905b80821115620001a45760008155600101620001af565b61137e80620001d56000396000f3fe608060405234801561001057600080fd5b50600436106101825760003560e01c8063715018a6116100d857806395d89b411161008c578063c85f12b511610066578063c85f12b51461044b578063dd62ed3e14610471578063f2fde38b1461049f57610182565b806395d89b41146103eb578063a457c2d7146103f3578063a9059cbb1461041f57610182565b806379cc6790116100bd57806379cc6790146103af5780638da5cb5b146103db5780638f32d59b146103e357610182565b8063715018a61461037b57806371c2fc9e1461038357610182565b8063395093511161013a578063495d8b3411610114578063495d8b34146103295780636d30cc9d1461033157806370a082311461035557610182565b806339509351146102b257806340c10f19146102de57806342966c681461030c57610182565b806318160ddd1161016b57806318160ddd1461024457806323b872dd1461025e578063313ce5671461029457610182565b806306fdde0314610187578063095ea7b314610204575b600080fd5b61018f6104c5565b6040805160208082528351818301528351919283929083019185019080838360005b838110156101c95781810151838201526020016101b1565b50505050905090810190601f1680156101f65780820380516001836020036101000a031916815260200191505b509250505060405180910390f35b6102306004803603604081101561021a57600080fd5b506001600160a01b03813516906020013561055b565b604080519115158252519081900360200190f35b61024c610578565b60408051918252519081900360200190f35b6102306004803603606081101561027457600080fd5b506001600160a01b0381358116916020810135909116906040013561057e565b61029c61060b565b6040805160ff9092168252519081900360200190f35b610230600480360360408110156102c857600080fd5b506001600160a01b038135169060200135610614565b61030a600480360360408110156102f457600080fd5b506001600160a01b038135169060200135610668565b005b61030a6004803603602081101561032257600080fd5b50356106e5565b6102306106f9565b6103396106fe565b604080516001600160a01b039092168252519081900360200190f35b61024c6004803603602081101561036b57600080fd5b50356001600160a01b031661070d565b61030a610728565b61030a6004803603604081101561039957600080fd5b506001600160a01b0381351690602001356107d8565b61030a600480360360408110156103c557600080fd5b506001600160a01b038135169060200135610851565b61033961085b565b61023061086a565b61018f610890565b6102306004803603604081101561040957600080fd5b506001600160a01b0381351690602001356108f0565b6102306004803603604081101561043557600080fd5b506001600160a01b03813516906020013561095e565b61030a6004803603602081101561046157600080fd5b50356001600160a01b0316610972565b61024c6004803603604081101561048757600080fd5b506001600160a01b0381358116916020013516610ab6565b61030a600480360360208110156104b557600080fd5b50356001600160a01b0316610ae1565b60008054604080516020601f60026000196101006001881615020190951694909404938401819004810282018101909252828152606093909290918301828280156105515780601f1061052657610100808354040283529160200191610551565b820191906000526020600020905b81548152906001019060200180831161053457829003601f168201915b5050505050905090565b600061056f610568610b43565b8484610b47565b50600192915050565b60055490565b600061058b848484610c33565b61060184610597610b43565b6105fc8560405180606001604052806028815260200161126f602891396001600160a01b038a166000908152600460205260408120906105d5610b43565b6001600160a01b03168152602081019190915260400160002054919063ffffffff610d9116565b610b47565b5060019392505050565b60025460ff1690565b600061056f610621610b43565b846105fc8560046000610632610b43565b6001600160a01b03908116825260208083019390935260409182016000908120918c16815292529020549063ffffffff610e2816565b6007546001600160a01b031661067c610b43565b6001600160a01b0316146106d7576040805162461bcd60e51b815260206004820152601d60248201527f43616c6c6572206973206e6f7420706f6f6c20636f6e74726f6c6c6572000000604482015290519081900360640190fd5b6106e18282610e89565b5050565b6106f66106f0610b43565b82610f7b565b50565b600190565b6007546001600160a01b031690565b6001600160a01b031660009081526003602052604090205490565b61073061086a565b610781576040805162461bcd60e51b815260206004820181905260248201527f4f776e61626c653a2063616c6c6572206973206e6f7420746865206f776e6572604482015290519081900360640190fd5b6006546040516000916001600160a01b0316907f8be0079c531659141344cd1fd0a4f28419497f9722a3daafe3b4186f6b6457e0908390a36006805473ffffffffffffffffffffffffffffffffffffffff19169055565b6007546001600160a01b03166107ec610b43565b6001600160a01b031614610847576040805162461bcd60e51b815260206004820152601d60248201527f43616c6c6572206973206e6f7420706f6f6c20636f6e74726f6c6c6572000000604482015290519081900360640190fd5b6106e18282610f7b565b6106e18282611077565b6006546001600160a01b031690565b6006546000906001600160a01b0316610881610b43565b6001600160a01b031614905090565b60018054604080516020601f600260001961010087891615020190951694909404938401819004810282018101909252828152606093909290918301828280156105515780601f1061052657610100808354040283529160200191610551565b600061056f6108fd610b43565b846105fc856040518060600160405280602581526020016113256025913960046000610927610b43565b6001600160a01b03908116825260208083019390935260409182016000908120918d1681529252902054919063ffffffff610d9116565b600061056f61096b610b43565b8484610c33565b61097a61086a565b6109cb576040805162461bcd60e51b815260206004820181905260248201527f4f776e61626c653a2063616c6c6572206973206e6f7420746865206f776e6572604482015290519081900360640190fd5b6000819050806001600160a01b031663c43a9a146040518163ffffffff1660e01b815260040160206040518083038186803b158015610a0957600080fd5b505afa158015610a1d573d6000803e3d6000fd5b505050506040513d6020811015610a3357600080fd5b5051610a86576040805162461bcd60e51b815260206004820152601560248201527f496e76616c69642049506f6f6c20616464726573730000000000000000000000604482015290519081900360640190fd5b506007805473ffffffffffffffffffffffffffffffffffffffff19166001600160a01b0392909216919091179055565b6001600160a01b03918216600090815260046020908152604080832093909416825291909152205490565b610ae961086a565b610b3a576040805162461bcd60e51b815260206004820181905260248201527f4f776e61626c653a2063616c6c6572206973206e6f7420746865206f776e6572604482015290519081900360640190fd5b6106f6816110cb565b3390565b6001600160a01b038316610b8c5760405162461bcd60e51b81526004018080602001828103825260248152602001806113016024913960400191505060405180910390fd5b6001600160a01b038216610bd15760405162461bcd60e51b81526004018080602001828103825260228152602001806112276022913960400191505060405180910390fd5b6001600160a01b03808416600081815260046020908152604080832094871680845294825291829020859055815185815291517f8c5be1e5ebec7d5bd14f71427d1e84f3dd0314c0f7b2291e5b200ac8c7c3b9259281900390910190a3505050565b6001600160a01b038316610c785760405162461bcd60e51b81526004018080602001828103825260258152602001806112dc6025913960400191505060405180910390fd5b6001600160a01b038216610cbd5760405162461bcd60e51b81526004018080602001828103825260238152602001806111bc6023913960400191505060405180910390fd5b610d0081604051806060016040528060268152602001611249602691396001600160a01b038616600090815260036020526040902054919063ffffffff610d9116565b6001600160a01b038085166000908152600360205260408082209390935590841681522054610d35908263ffffffff610e2816565b6001600160a01b0380841660008181526003602090815260409182902094909455805185815290519193928716927fddf252ad1be2c89b69c2b068fc378daa952ba7f163c4a11628f55a4df523b3ef92918290030190a3505050565b60008184841115610e205760405162461bcd60e51b81526004018080602001828103825283818151815260200191508051906020019080838360005b83811015610de5578181015183820152602001610dcd565b50505050905090810190601f168015610e125780820380516001836020036101000a031916815260200191505b509250505060405180910390fd5b505050900390565b600082820183811015610e82576040805162461bcd60e51b815260206004820152601b60248201527f536166654d6174683a206164646974696f6e206f766572666c6f770000000000604482015290519081900360640190fd5b9392505050565b6001600160a01b038216610ee4576040805162461bcd60e51b815260206004820152601f60248201527f45524332303a206d696e7420746f20746865207a65726f206164647265737300604482015290519081900360640190fd5b600554610ef7908263ffffffff610e2816565b6005556001600160a01b038216600090815260036020526040902054610f23908263ffffffff610e2816565b6001600160a01b03831660008181526003602090815260408083209490945583518581529351929391927fddf252ad1be2c89b69c2b068fc378daa952ba7f163c4a11628f55a4df523b3ef9281900390910190a35050565b6001600160a01b038216610fc05760405162461bcd60e51b81526004018080602001828103825260218152602001806112bb6021913960400191505060405180910390fd5b611003816040518060600160405280602281526020016111df602291396001600160a01b038516600090815260036020526040902054919063ffffffff610d9116565b6001600160a01b03831660009081526003602052604090205560055461102f908263ffffffff61117916565b6005556040805182815290516000916001600160a01b038516917fddf252ad1be2c89b69c2b068fc378daa952ba7f163c4a11628f55a4df523b3ef9181900360200190a35050565b6110818282610f7b565b6106e18261108d610b43565b6105fc84604051806060016040528060248152602001611297602491396001600160a01b0388166000908152600460205260408120906105d5610b43565b6001600160a01b0381166111105760405162461bcd60e51b81526004018080602001828103825260268152602001806112016026913960400191505060405180910390fd5b6006546040516001600160a01b038084169216907f8be0079c531659141344cd1fd0a4f28419497f9722a3daafe3b4186f6b6457e090600090a36006805473ffffffffffffffffffffffffffffffffffffffff19166001600160a01b0392909216919091179055565b6000610e8283836040518060400160405280601e81526020017f536166654d6174683a207375627472616374696f6e206f766572666c6f770000815250610d9156fe45524332303a207472616e7366657220746f20746865207a65726f206164647265737345524332303a206275726e20616d6f756e7420657863656564732062616c616e63654f776e61626c653a206e6577206f776e657220697320746865207a65726f206164647265737345524332303a20617070726f766520746f20746865207a65726f206164647265737345524332303a207472616e7366657220616d6f756e7420657863656564732062616c616e636545524332303a207472616e7366657220616d6f756e74206578636565647320616c6c6f77616e636545524332303a206275726e20616d6f756e74206578636565647320616c6c6f77616e636545524332303a206275726e2066726f6d20746865207a65726f206164647265737345524332303a207472616e736665722066726f6d20746865207a65726f206164647265737345524332303a20617070726f76652066726f6d20746865207a65726f206164647265737345524332303a2064656372656173656420616c6c6f77616e63652062656c6f77207a65726fa265627a7a723158206f59c16e45455ad0c5f48d010aa07249581bcbaea9e42267cebc27136557685264736f6c634300050c0032",
  "linkReferences": {},
  "deployedLinkReferences": {}
}