{
  "_format": "hh-sol-artifact-1",
  "contractName": "FakeGameController",
  "sourceName": "contracts/testContracts/FakeGameController.sol",
  "abi": [
    {
      "inputs": [
        {
          "internalType": "address",
          "name": "oracleAddress",
          "type": "address"
        }
      ],
      "payable": false,
      "stateMutability": "nonpayable",
      "type": "constructor"
    },
    {
      "anonymous": false,
      "inputs": [
        {
          "indexed": true,
          "internalType": "address",
          "name": "previousOwner",
          "type": "address"
        },
        {
          "indexed": true,
          "internalType": "address",
          "name": "newOwner",
          "type": "address"
        }
      ],
      "name": "OwnershipTransferred",
      "type": "event"
    },
    {
      "constant": false,
      "inputs": [
        {
          "internalType": "uint8[]",
          "name": "cards",
          "type": "uint8[]"
        },
        {
          "internalType": "uint256",
          "name": "requestId",
          "type": "uint256"
        },
        {
          "internalType": "uint256",
          "name": "bitCards",
          "type": "uint256"
        }
      ],
      "name": "__callback",
      "outputs": [],
      "payable": false,
      "stateMutability": "nonpayable",
      "type": "function"
    },
    {
      "constant": false,
      "inputs": [
        {
          "internalType": "uint256",
          "name": "requestId",
          "type": "uint256"
        }
      ],
      "name": "acceptRandomNumberRequest",
      "outputs": [],
      "payable": false,
      "stateMutability": "nonpayable",
      "type": "function"
    },
    {
      "constant": false,
      "inputs": [],
      "name": "createRandomNumberRequest",
      "outputs": [],
      "payable": false,
      "stateMutability": "nonpayable",
      "type": "function"
    },
    {
      "constant": true,
      "inputs": [],
      "name": "getLastRequestId",
      "outputs": [
        {
          "internalType": "uint256",
          "name": "",
          "type": "uint256"
        }
      ],
      "payable": false,
      "stateMutability": "view",
      "type": "function"
    },
    {
      "constant": true,
      "inputs": [],
      "name": "getOracle",
      "outputs": [
        {
          "internalType": "address",
          "name": "",
          "type": "address"
        }
      ],
      "payable": false,
      "stateMutability": "view",
      "type": "function"
    },
    {
      "constant": true,
      "inputs": [],
      "name": "isOwner",
      "outputs": [
        {
          "internalType": "bool",
          "name": "",
          "type": "bool"
        }
      ],
      "payable": false,
      "stateMutability": "view",
      "type": "function"
    },
    {
      "constant": true,
      "inputs": [],
      "name": "owner",
      "outputs": [
        {
          "internalType": "address",
          "name": "",
          "type": "address"
        }
      ],
      "payable": false,
      "stateMutability": "view",
      "type": "function"
    },
    {
      "constant": false,
      "inputs": [],
      "name": "renounceOwnership",
      "outputs": [],
      "payable": false,
      "stateMutability": "nonpayable",
      "type": "function"
    },
    {
      "constant": false,
      "inputs": [
        {
          "internalType": "address",
          "name": "oracleAddress",
          "type": "address"
        }
      ],
      "name": "setOracle",
      "outputs": [],
      "payable": false,
      "stateMutability": "nonpayable",
      "type": "function"
    },
    {
      "constant": true,
      "inputs": [],
      "name": "supportsIGame",
      "outputs": [
        {
          "internalType": "bool",
          "name": "",
          "type": "bool"
        }
      ],
      "payable": false,
      "stateMutability": "view",
      "type": "function"
    },
    {
      "constant": false,
      "inputs": [
        {
          "internalType": "address",
          "name": "newOwner",
          "type": "address"
        }
      ],
      "name": "transferOwnership",
      "outputs": [],
      "payable": false,
      "stateMutability": "nonpayable",
      "type": "function"
    }
  ],
  "bytecode": "0x608060405234801561001057600080fd5b50604051610b39380380610b398339818101604052602081101561003357600080fd5b50518060006100496001600160e01b036100ac16565b600080546001600160a01b0319166001600160a01b0383169081178255604051929350917f8be0079c531659141344cd1fd0a4f28419497f9722a3daafe3b4186f6b6457e0908290a3506100a5816001600160e01b036100b016565b50506101a8565b3390565b6000819050806001600160a01b031663d520544c6040518163ffffffff1660e01b815260040160206040518083038186803b1580156100ee57600080fd5b505afa158015610102573d6000803e3d6000fd5b505050506040513d602081101561011857600080fd5b505161018557604080517f08c379a000000000000000000000000000000000000000000000000000000000815260206004820152601760248201527f696e76616c696420494f7261636c652061646472657373000000000000000000604482015290519081900360640190fd5b600180546001600160a01b0319166001600160a01b039290921691909117905550565b610982806101b76000396000f3fe608060405234801561001057600080fd5b50600436106100c95760003560e01c8063833b1fce1161008157806390b063f01161005b57806390b063f0146101de578063eb3e8bb4146101fb578063f2fde38b14610203576100c9565b8063833b1fce146101aa5780638da5cb5b146101ce5780638f32d59b146101d6576100c9565b8063715018a6116100b2578063715018a6146101605780637654007e146101685780637adbf97314610184576100c9565b806319c2b4c3146100ce5780634a1f2ccb146100e8575b600080fd5b6100d6610229565b60408051918252519081900360200190f35b61015e600480360360608110156100fe57600080fd5b81019060208101813564010000000081111561011957600080fd5b82018360208201111561012b57600080fd5b8035906020019184602083028401116401000000008311171561014d57600080fd5b91935091508035906020013561028c565b005b61015e6103fc565b6101706104ac565b604080519115158252519081900360200190f35b61015e6004803603602081101561019a57600080fd5b50356001600160a01b03166104b1565b6101b2610516565b604080516001600160a01b039092168252519081900360200190f35b6101b2610525565b610170610534565b61015e600480360360208110156101f457600080fd5b5035610558565b61015e6105b9565b61015e6004803603602081101561021957600080fd5b50356001600160a01b031661065d565b6000610233610534565b610284576040805162461bcd60e51b815260206004820181905260248201527f4f776e61626c653a2063616c6c6572206973206e6f7420746865206f776e6572604482015290519081900360640190fd5b506002545b90565b6001546001600160a01b031633146102eb576040805162461bcd60e51b815260206004820152601860248201527f63616c6c6572206973206e6f7420746865206f7261636c650000000000000000604482015290519081900360640190fd5b60008281526003602052604090206001808201805467ffffffffffffffff19164267ffffffffffffffff16179055600182015468010000000000000000900460ff16600281111561033857fe5b1461038a576040805162461bcd60e51b815260206004820152601660248201527f7265717565737420616c726561647920636c6f73656400000000000000000000604482015290519081900360640190fd5b60018101805468ff00000000000000001916680200000000000000001790556103b4818686610860565b506103f58585808060200260200160405190810160405280939291908181526020018383602002808284376000920191909152508792508691506106bf9050565b5050505050565b610404610534565b610455576040805162461bcd60e51b815260206004820181905260248201527f4f776e61626c653a2063616c6c6572206973206e6f7420746865206f776e6572604482015290519081900360640190fd5b600080546040516001600160a01b03909116907f8be0079c531659141344cd1fd0a4f28419497f9722a3daafe3b4186f6b6457e0908390a36000805473ffffffffffffffffffffffffffffffffffffffff19169055565b600190565b6104b9610534565b61050a576040805162461bcd60e51b815260206004820181905260248201527f4f776e61626c653a2063616c6c6572206973206e6f7420746865206f776e6572604482015290519081900360640190fd5b610513816106c4565b50565b6001546001600160a01b031690565b6000546001600160a01b031690565b600080546001600160a01b03166105496107af565b6001600160a01b031614905090565b6001546040805163090b063f60e41b81526004810184905290516001600160a01b03909216916390b063f09160248082019260009290919082900301818387803b1580156105a557600080fd5b505af11580156103f5573d6000803e3d6000fd5b60015460408051633acfa2ed60e21b815290516000926001600160a01b03169163eb3e8bb491600480830192602092919082900301818787803b1580156105ff57600080fd5b505af1158015610613573d6000803e3d6000fd5b505050506040513d602081101561062957600080fd5b50516000818152600360205260409020600101805468ff000000000000000019166801000000000000000017905560025550565b610665610534565b6106b6576040805162461bcd60e51b815260206004820181905260248201527f4f776e61626c653a2063616c6c6572206973206e6f7420746865206f776e6572604482015290519081900360640190fd5b610513816107b3565b505050565b6000819050806001600160a01b031663d520544c6040518163ffffffff1660e01b815260040160206040518083038186803b15801561070257600080fd5b505afa158015610716573d6000803e3d6000fd5b505050506040513d602081101561072c57600080fd5b505161077f576040805162461bcd60e51b815260206004820152601760248201527f696e76616c696420494f7261636c652061646472657373000000000000000000604482015290519081900360640190fd5b6001805473ffffffffffffffffffffffffffffffffffffffff19166001600160a01b039290921691909117905550565b3390565b6001600160a01b0381166107f85760405162461bcd60e51b81526004018080602001828103825260268152602001806109286026913960400191505060405180910390fd5b600080546040516001600160a01b03808516939216917f8be0079c531659141344cd1fd0a4f28419497f9722a3daafe3b4186f6b6457e091a36000805473ffffffffffffffffffffffffffffffffffffffff19166001600160a01b0392909216919091179055565b82805482825590600052602060002090601f016020900481019282156108f95791602002820160005b838211156108ca57833560ff1683826101000a81548160ff021916908360ff1602179055509260200192600101602081600001049283019260010302610889565b80156108f75782816101000a81549060ff02191690556001016020816000010492830192600103026108ca565b505b50610905929150610909565b5090565b61028991905b8082111561090557805460ff1916815560010161090f56fe4f776e61626c653a206e6577206f776e657220697320746865207a65726f2061646472657373a265627a7a72315820fce1a8259e579bfbbb376c01005acd893c0ed7f97a5fa3e01cb80a802be4995964736f6c634300050c0032",
  "linkReferences": {},
  "deployedLinkReferences": {}
}