{
  "_format": "hh-sol-artifact-1",
  "contractName": "Poker",
  "sourceName": "contracts/Poker.sol",
  "abi": [
    {
      "inputs": [
        {
          "internalType": "address",
          "name": "oracleAddress",
          "type": "address"
        },
        {
          "internalType": "address",
          "name": "poolControllerAddress",
          "type": "address"
        }
      ],
      "payable": false,
      "stateMutability": "nonpayable",
      "type": "constructor"
    },
    {
      "anonymous": false,
      "inputs": [
        {
          "indexed": false,
          "internalType": "address",
          "name": "player",
          "type": "address"
        },
        {
          "indexed": false,
          "internalType": "uint256",
          "name": "requestId",
          "type": "uint256"
        },
        {
          "indexed": false,
          "internalType": "uint256",
          "name": "betPoker",
          "type": "uint256"
        },
        {
          "indexed": false,
          "internalType": "uint256",
          "name": "betColor",
          "type": "uint256"
        },
        {
          "indexed": false,
          "internalType": "uint256",
          "name": "chosenColor",
          "type": "uint256"
        }
      ],
      "name": "GameStart",
      "type": "event"
    },
    {
      "anonymous": false,
      "inputs": [
        {
          "indexed": true,
          "internalType": "address",
          "name": "previousOwner",
          "type": "address"
        },
        {
          "indexed": true,
          "internalType": "address",
          "name": "newOwner",
          "type": "address"
        }
      ],
      "name": "OwnershipTransferred",
      "type": "event"
    },
    {
      "anonymous": false,
      "inputs": [
        {
          "indexed": false,
          "internalType": "uint256",
          "name": "winAmount",
          "type": "uint256"
        },
        {
          "indexed": false,
          "internalType": "bool",
          "name": "winColor",
          "type": "bool"
        },
        {
          "indexed": false,
          "internalType": "enum Poker.GameResults",
          "name": "winPoker",
          "type": "uint8"
        },
        {
          "indexed": false,
          "internalType": "uint256",
          "name": "requestId",
          "type": "uint256"
        },
        {
          "indexed": false,
          "internalType": "uint256",
          "name": "cards",
          "type": "uint256"
        },
        {
          "indexed": false,
          "internalType": "address",
          "name": "player",
          "type": "address"
        }
      ],
      "name": "PokerResult",
      "type": "event"
    },
    {
      "constant": false,
      "inputs": [
        {
          "internalType": "uint8[]",
          "name": "cards",
          "type": "uint8[]"
        },
        {
          "internalType": "uint256",
          "name": "requestId",
          "type": "uint256"
        },
        {
          "internalType": "uint256",
          "name": "bitCards",
          "type": "uint256"
        }
      ],
      "name": "__callback",
      "outputs": [],
      "payable": false,
      "stateMutability": "nonpayable",
      "type": "function"
    },
    {
      "constant": true,
      "inputs": [
        {
          "internalType": "uint256",
          "name": "requestId",
          "type": "uint256"
        }
      ],
      "name": "getGameInfo",
      "outputs": [
        {
          "internalType": "uint256",
          "name": "",
          "type": "uint256"
        },
        {
          "internalType": "uint256",
          "name": "",
          "type": "uint256"
        },
        {
          "internalType": "uint256",
          "name": "",
          "type": "uint256"
        },
        {
          "internalType": "address",
          "name": "",
          "type": "address"
        }
      ],
      "payable": false,
      "stateMutability": "view",
      "type": "function"
    },
    {
      "constant": true,
      "inputs": [],
      "name": "getHouseEdge",
      "outputs": [
        {
          "internalType": "uint256",
          "name": "",
          "type": "uint256"
        }
      ],
      "payable": false,
      "stateMutability": "view",
      "type": "function"
    },
    {
      "constant": true,
      "inputs": [],
      "name": "getJackpotFeeMultiplier",
      "outputs": [
        {
          "internalType": "uint256",
          "name": "",
          "type": "uint256"
        }
      ],
      "payable": false,
      "stateMutability": "view",
      "type": "function"
    },
    {
      "constant": true,
      "inputs": [],
      "name": "getLastGamePlayer",
      "outputs": [
        {
          "internalType": "address",
          "name": "",
          "type": "address"
        }
      ],
      "payable": false,
      "stateMutability": "view",
      "type": "function"
    },
    {
      "constant": true,
      "inputs": [],
      "name": "getLastRequestId",
      "outputs": [
        {
          "internalType": "uint256",
          "name": "",
          "type": "uint256"
        }
      ],
      "payable": false,
      "stateMutability": "view",
      "type": "function"
    },
    {
      "constant": true,
      "inputs": [],
      "name": "getMaxBet",
      "outputs": [
        {
          "internalType": "uint256",
          "name": "",
          "type": "uint256"
        }
      ],
      "payable": false,
      "stateMutability": "view",
      "type": "function"
    },
    {
      "constant": true,
      "inputs": [],
      "name": "getOracle",
      "outputs": [
        {
          "internalType": "address",
          "name": "",
          "type": "address"
        }
      ],
      "payable": false,
      "stateMutability": "view",
      "type": "function"
    },
    {
      "constant": true,
      "inputs": [],
      "name": "getPoolController",
      "outputs": [
        {
          "internalType": "address",
          "name": "",
          "type": "address"
        }
      ],
      "payable": false,
      "stateMutability": "view",
      "type": "function"
    },
    {
      "constant": true,
      "inputs": [],
      "name": "isOwner",
      "outputs": [
        {
          "internalType": "bool",
          "name": "",
          "type": "bool"
        }
      ],
      "payable": false,
      "stateMutability": "view",
      "type": "function"
    },
    {
      "constant": true,
      "inputs": [],
      "name": "owner",
      "outputs": [
        {
          "internalType": "address",
          "name": "",
          "type": "address"
        }
      ],
      "payable": false,
      "stateMutability": "view",
      "type": "function"
    },
    {
      "constant": false,
      "inputs": [
        {
          "internalType": "uint256",
          "name": "betColor",
          "type": "uint256"
        },
        {
          "internalType": "uint256",
          "name": "chosenColor",
          "type": "uint256"
        }
      ],
      "name": "play",
      "outputs": [],
      "payable": true,
      "stateMutability": "payable",
      "type": "function"
    },
    {
      "constant": false,
      "inputs": [],
      "name": "renounceOwnership",
      "outputs": [],
      "payable": false,
      "stateMutability": "nonpayable",
      "type": "function"
    },
    {
      "constant": false,
      "inputs": [
        {
          "internalType": "uint256",
          "name": "houseEdge",
          "type": "uint256"
        }
      ],
      "name": "setHouseEdge",
      "outputs": [],
      "payable": false,
      "stateMutability": "nonpayable",
      "type": "function"
    },
    {
      "constant": false,
      "inputs": [
        {
          "internalType": "uint256",
          "name": "jackpotFeeMultiplier",
          "type": "uint256"
        }
      ],
      "name": "setJackpotFeeMultiplier",
      "outputs": [],
      "payable": false,
      "stateMutability": "nonpayable",
      "type": "function"
    },
    {
      "constant": false,
      "inputs": [
        {
          "internalType": "uint256",
          "name": "maxBet",
          "type": "uint256"
        }
      ],
      "name": "setMaxBet",
      "outputs": [],
      "payable": false,
      "stateMutability": "nonpayable",
      "type": "function"
    },
    {
      "constant": false,
      "inputs": [
        {
          "internalType": "address",
          "name": "oracleAddress",
          "type": "address"
        }
      ],
      "name": "setOracle",
      "outputs": [],
      "payable": false,
      "stateMutability": "nonpayable",
      "type": "function"
    },
    {
      "constant": false,
      "inputs": [
        {
          "internalType": "address",
          "name": "poolControllerAddress",
          "type": "address"
        }
      ],
      "name": "setPoolController",
      "outputs": [],
      "payable": false,
      "stateMutability": "nonpayable",
      "type": "function"
    },
    {
      "constant": true,
      "inputs": [],
      "name": "supportsIGame",
      "outputs": [
        {
          "internalType": "bool",
          "name": "",
          "type": "bool"
        }
      ],
      "payable": false,
      "stateMutability": "view",
      "type": "function"
    },
    {
      "constant": false,
      "inputs": [
        {
          "internalType": "address",
          "name": "newOwner",
          "type": "address"
        }
      ],
      "name": "transferOwnership",
      "outputs": [],
      "payable": false,
      "stateMutability": "nonpayable",
      "type": "function"
    }
  ],
  "bytecode": "0x60806040523480156200001157600080fd5b5060405162002da238038062002da2833981810160405260408110156200003757600080fd5b508051602090910151816000620000566001600160e01b03620000fa16565b600080546001600160a01b0319166001600160a01b0383169081178255604051929350917f8be0079c531659141344cd1fd0a4f28419497f9722a3daafe3b4186f6b6457e0908290a350620000b4816001600160e01b03620000fe16565b50620000c9816001600160e01b03620001fa16565b600f600c556002600d55600e80546001600160a01b0319166001600160a01b039290921691909117905550620002f6565b3390565b6000819050806001600160a01b031663d520544c6040518163ffffffff1660e01b815260040160206040518083038186803b1580156200013d57600080fd5b505afa15801562000152573d6000803e3d6000fd5b505050506040513d60208110156200016957600080fd5b5051620001d757604080517f08c379a000000000000000000000000000000000000000000000000000000000815260206004820152601760248201527f696e76616c696420494f7261636c652061646472657373000000000000000000604482015290519081900360640190fd5b600180546001600160a01b0319166001600160a01b039290921691909117905550565b6000819050806001600160a01b031663c43a9a146040518163ffffffff1660e01b815260040160206040518083038186803b1580156200023957600080fd5b505afa1580156200024e573d6000803e3d6000fd5b505050506040513d60208110156200026557600080fd5b5051620002d357604080517f08c379a000000000000000000000000000000000000000000000000000000000815260206004820152601960248201527f706f6f6c41646472657373206d7573742062652049506f6f6c00000000000000604482015290519081900360640190fd5b600f80546001600160a01b0319166001600160a01b039290921691909117905550565b612a9c80620003066000396000f3fe60806040526004361061015f5760003560e01c80637654007e116100c05780638da5cb5b11610074578063a4ca9b9511610059578063a4ca9b951461042a578063c85f12b51461043f578063f2fde38b146104725761015f565b80638da5cb5b146104005780638f32d59b146104155761015f565b80637bc49a95116100a55780637bc49a951461039e578063833b1fce146103c1578063881eff1e146103d65761015f565b80637654007e146103425780637adbf9731461036b5761015f565b80634cf4a292116101175780636cd0f102116100fc5780636cd0f102146102d25780636d30cc9d146102fc578063715018a61461032d5761015f565b80634cf4a292146102a8578063646668b6146102bd5761015f565b80632f0bdbe8116101485780632f0bdbe8146101b757806347e1d550146101cc5780634a1f2ccb146102255761015f565b8063093484961461016457806319c2b4c314610190575b600080fd5b34801561017057600080fd5b5061018e6004803603602081101561018757600080fd5b50356104a5565b005b34801561019c57600080fd5b506101a5610503565b60408051918252519081900360200190f35b3480156101c357600080fd5b506101a5610566565b3480156101d857600080fd5b506101f6600480360360208110156101ef57600080fd5b503561056c565b604080519485526020850193909352838301919091526001600160a01b03166060830152519081900360800190f35b34801561023157600080fd5b5061018e6004803603606081101561024857600080fd5b81019060208101813564010000000081111561026357600080fd5b82018360208201111561027557600080fd5b8035906020019184602083028401116401000000008311171561029757600080fd5b91935091508035906020013561059d565b3480156102b457600080fd5b506101a561070d565b3480156102c957600080fd5b506101a5610713565b3480156102de57600080fd5b5061018e600480360360208110156102f557600080fd5b5035610719565b34801561030857600080fd5b50610311610777565b604080516001600160a01b039092168252519081900360200190f35b34801561033957600080fd5b5061018e610786565b34801561034e57600080fd5b50610357610829565b604080519115158252519081900360200190f35b34801561037757600080fd5b5061018e6004803603602081101561038e57600080fd5b50356001600160a01b031661082e565b61018e600480360360408110156103b457600080fd5b5080359060200135610893565b3480156103cd57600080fd5b50610311610b29565b3480156103e257600080fd5b5061018e600480360360208110156103f957600080fd5b5035610b38565b34801561040c57600080fd5b50610311610b96565b34801561042157600080fd5b50610357610ba5565b34801561043657600080fd5b50610311610bc9565b34801561044b57600080fd5b5061018e6004803603602081101561046257600080fd5b50356001600160a01b0316610bea565b34801561047e57600080fd5b5061018e6004803603602081101561049557600080fd5b50356001600160a01b0316610c4c565b6104ad610ba5565b6104fe576040805162461bcd60e51b815260206004820181905260248201527f4f776e61626c653a2063616c6c6572206973206e6f7420746865206f776e6572604482015290519081900360640190fd5b600d55565b600061050d610ba5565b61055e576040805162461bcd60e51b815260206004820181905260248201527f4f776e61626c653a2063616c6c6572206973206e6f7420746865206f776e6572604482015290519081900360640190fd5b506002545b90565b600d5490565b600090815260106020526040902080546001820154600283015460039093015491939092916001600160a01b031690565b6001546001600160a01b031633146105fc576040805162461bcd60e51b815260206004820152601860248201527f63616c6c6572206973206e6f7420746865206f7261636c650000000000000000604482015290519081900360640190fd5b60008281526003602052604090206001808201805467ffffffffffffffff19164267ffffffffffffffff16179055600182015468010000000000000000900460ff16600281111561064957fe5b1461069b576040805162461bcd60e51b815260206004820152601660248201527f7265717565737420616c726561647920636c6f73656400000000000000000000604482015290519081900360640190fd5b60018101805468ff00000000000000001916680200000000000000001790556106c58186866128a6565b50610706858580806020026020016040519081016040528093929190818152602001838360200280828437600092019190915250879250869150610cae9050565b5050505050565b600c5490565b600b5490565b610721610ba5565b610772576040805162461bcd60e51b815260206004820181905260248201527f4f776e61626c653a2063616c6c6572206973206e6f7420746865206f776e6572604482015290519081900360640190fd5b600c55565b600f546001600160a01b031690565b61078e610ba5565b6107df576040805162461bcd60e51b815260206004820181905260248201527f4f776e61626c653a2063616c6c6572206973206e6f7420746865206f776e6572604482015290519081900360640190fd5b600080546040516001600160a01b03909116907f8be0079c531659141344cd1fd0a4f28419497f9722a3daafe3b4186f6b6457e0908390a3600080546001600160a01b0319169055565b600190565b610836610ba5565b610887576040805162461bcd60e51b815260206004820181905260248201527f4f776e61626c653a2063616c6c6572206973206e6f7420746865206f776e6572604482015290519081900360640190fd5b61089081611129565b50565b60006108a5348463ffffffff61120716565b90506108b18184611252565b600f5460408051633c793d4960e01b815290516000926001600160a01b031691633c793d49916004808301926020929190829003018186803b1580156108f657600080fd5b505afa15801561090a573d6000803e3d6000fd5b505050506040513d602081101561092057600080fd5b505190506109486103e861093c836103f763ffffffff61158d16565b9063ffffffff6115e616565b341161099b576040805162461bcd60e51b815260206004820152600d60248201527f42657420746f6f20736d616c6c00000000000000000000000000000000000000604482015290519081900360640190fd5b600b54156109fa57600b543411156109fa576040805162461bcd60e51b815260206004820152600b60248201527f42657420746f6f20626967000000000000000000000000000000000000000000604482015290519081900360640190fd5b600f5460408051634707fff760e01b81523460048201819052915133936001600160a01b031692634707fff7929091602480830192600092919082900301818588803b158015610a4957600080fd5b505af1158015610a5d573d6000803e3d6000fd5b5050505050610a6a611628565b604080516080808201835287825260208083018781528385018981526001600160a01b038781166060808801828152600280546000908152601089528b902099518a55955160018a01559351888601559251600390970180546001600160a01b0319169790921696909617905590548551948552918401919091528284018790528201889052810186905290517f9f7662fde0da14f283971fa9b8c0535cfce3f0a658d3f2c229ec255bd82517299160a0908290030190a15050505050565b6001546001600160a01b031690565b610b40610ba5565b610b91576040805162461bcd60e51b815260206004820181905260248201527f4f776e61626c653a2063616c6c6572206973206e6f7420746865206f776e6572604482015290519081900360640190fd5b600b55565b6000546001600160a01b031690565b600080546001600160a01b0316610bba6117ad565b6001600160a01b031614905090565b6002546000908152601060205260409020600301546001600160a01b031690565b610bf2610ba5565b610c43576040805162461bcd60e51b815260206004820181905260248201527f4f776e61626c653a2063616c6c6572206973206e6f7420746865206f776e6572604482015290519081900360640190fd5b610890816117b1565b610c54610ba5565b610ca5576040805162461bcd60e51b815260206004820181905260248201527f4f776e61626c653a2063616c6c6572206973206e6f7420746865206f776e6572604482015290519081900360640190fd5b6108908161188f565b600082815260106020526040812060018101549054600d54839291908390610ce5906103e89061093c90869063ffffffff61158d16565b90506000610d046103e861093c600c548761158d90919063ffffffff16565b60008981526010602052604080822060030154600f54825163f80fb76d60e01b81526004810188905292519495506001600160a01b039182169491169163f80fb76d916024808301928692919082900301818387803b158015610d6657600080fd5b505af1158015610d7a573d6000803e3d6000fd5b50505060008b815260106020526040902054159050610e6c576040805160038082526080820190925260609160208201838038833901905050905060025b6005811015610dfe578c8181518110610dcd57fe5b6020026020010151826002830381518110610de457fe5b60ff90921660209283029190910190910152600101610db8565b5060008b815260106020526040902060020154610e1c90829061192f565b15610e6a57610e3c6103e861093c600c548961158d90919063ffffffff16565b9750610e6388610e57600d548961158d90919063ffffffff16565b9063ffffffff61120716565b9850600191505b505b6000610e778c6119a2565b90506001816003811115610e8757fe5b1415610eb657610eaf610ea28886880163ffffffff61120716565b8a9063ffffffff611b5616565b9850610f74565b6002816003811115610ec457fe5b1415610ee457610eaf610ea2858701610e578a600263ffffffff61158d16565b6003816003811115610ef257fe5b1415610f7457600f546040805163034cdc3360e61b81526001600160a01b0386811660048301529151919092169163d3370cc09160248083019260209291908290030181600087803b158015610f4757600080fd5b505af1158015610f5b573d6000803e3d6000fd5b505050506040513d6020811015610f7157600080fd5b50505b88156110a157600f5460408051632617af2760e11b81526001600160a01b038681166004830152602482018d905291519190921691634c2f5e4e9160448083019260209291908290030181600087803b158015610fd057600080fd5b505af1158015610fe4573d6000803e3d6000fd5b505050506040513d6020811015610ffa57600080fd5b50849050821561101757611014818a63ffffffff611b5616565b90505b600182600381111561102557fe5b1461109f57600f546040805163410af79d60e01b81526001600160a01b038781166004830152602482018e9052604482018590529151919092169163410af79d91606480830192600092919082900301818387803b15801561108657600080fd5b505af115801561109a573d6000803e3d6000fd5b505050505b505b7fbf64c19d208f47f672f9b8726702b523f305e73d59af9cf576e9092fdfd28fcc8983838e8e8860405180878152602001861515151581526020018560038111156110e857fe5b60ff1681526020810194909452506040808401929092526001600160a01b0316606083015251908190036080019350915050a1505050505050505050505050565b6000819050806001600160a01b031663d520544c6040518163ffffffff1660e01b815260040160206040518083038186803b15801561116757600080fd5b505afa15801561117b573d6000803e3d6000fd5b505050506040513d602081101561119157600080fd5b50516111e4576040805162461bcd60e51b815260206004820152601760248201527f696e76616c696420494f7261636c652061646472657373000000000000000000604482015290519081900360640190fd5b600180546001600160a01b0319166001600160a01b039290921691909117905550565b600061124983836040518060400160405280601e81526020017f536166654d6174683a207375627472616374696f6e206f766572666c6f770000815250611bb0565b90505b92915050565b600f546040805163255a5d2160e11b815290516000926001600160a01b031691634ab4ba42916004808301926020929190829003018186803b15801561129757600080fd5b505afa1580156112ab573d6000803e3d6000fd5b505050506040513d60208110156112c157600080fd5b50516004549091506112da90600163ffffffff611b5616565b60048190556001141561133457600b54611303576112ff8160e663ffffffff6115e616565b600b555b6005839055600682905561131d838063ffffffff61158d16565b600755611330828063ffffffff61158d16565b6008555b600160045411156115875761136f60045461093c8561136360055460016004540361158d90919063ffffffff16565b9063ffffffff611b5616565b600555600454600654611398919061093c9085906113639060001985019063ffffffff61158d16565b6006556004546113cf9061093c6113b5868063ffffffff61158d16565b61136360075460016004540361158d90919063ffffffff16565b6007556004546114069061093c6113ec858063ffffffff61158d16565b61136360085460016004540361158d90919063ffffffff16565b60085560055461141c908063ffffffff61158d16565b60075403600955600654611436908063ffffffff61158d16565b60085403600a819055506000611470611461600a611455600954611c47565b9063ffffffff61158d16565b6005549063ffffffff611b5616565b90506000611496611487600a611455600a54611c47565b6006549063ffffffff611b5616565b90506003600454101580156114d357506114b78360e663ffffffff6115e616565b8210806114d357506114d08360e663ffffffff6115e616565b81105b156107065760006004556114ee83606d63ffffffff6115e616565b600b5411156115145761150883606d63ffffffff6115e616565b600b5550611589915050565b6115258360e663ffffffff6115e616565b600b54101561153f576115088360e663ffffffff6115e616565b8082111561156857600b5461156090839061093c908063ffffffff61158d16565b600b55610706565b600b5461158190829061093c908063ffffffff61158d16565b600b5550505b505b5050565b60008261159c5750600061124c565b828202828482816115a957fe5b04146112495760405162461bcd60e51b8152600401808060200182810382526021815260200180612a476021913960400191505060405180910390fd5b600061124983836040518060400160405280601a81526020017f536166654d6174683a206469766973696f6e206279207a65726f000000000000815250611c7e565b60015460408051633acfa2ed60e21b815290516000926001600160a01b03169163eb3e8bb491600480830192602092919082900301818787803b15801561166e57600080fd5b505af1158015611682573d6000803e3d6000fd5b505050506040513d602081101561169857600080fd5b50516000818152600360205260409020600101549091504267ffffffffffffffff90811662093a7f190191161115611717576040805162461bcd60e51b815260206004820152601660248201527f72657175657374496420616c7265616479207573656400000000000000000000604482015290519081900360640190fd5b6001546040805163090b063f60e41b81526004810184905290516001600160a01b03909216916390b063f09160248082019260009290919082900301818387803b15801561176457600080fd5b505af1158015611778573d6000803e3d6000fd5b5050506000828152600360205260409020600101805468ff000000000000000019166801000000000000000017905550600255565b3390565b6000819050806001600160a01b031663c43a9a146040518163ffffffff1660e01b815260040160206040518083038186803b1580156117ef57600080fd5b505afa158015611803573d6000803e3d6000fd5b505050506040513d602081101561181957600080fd5b505161186c576040805162461bcd60e51b815260206004820152601960248201527f706f6f6c41646472657373206d7573742062652049506f6f6c00000000000000604482015290519081900360640190fd5b600f80546001600160a01b0319166001600160a01b039290921691909117905550565b6001600160a01b0381166118d45760405162461bcd60e51b8152600401808060200182810382526026815260200180612a216026913960400191505060405180910390fd5b600080546040516001600160a01b03808516939216917f8be0079c531659141344cd1fd0a4f28419497f9722a3daafe3b4186f6b6457e091a3600080546001600160a01b0319166001600160a01b0392909216919091179055565b600080805b845181101561199757836002600d87848151811061194e57fe5b602002602001015160ff168161196057fe5b0460ff168161196b57fe5b0660ff16141561197c576001909101905b6002821061198f5760019250505061124c565b600101611934565b506000949350505050565b60006119ac61294f565b6119b461294f565b60005b8451811015611ac8576007811015611a3d578481815181106119d557fe5b6020026020010151836020015182600781106119ed57fe5b602002019060ff16908160ff1681525050600d858281518110611a0c57fe5b602002602001015160ff1681611a1e57fe5b0683600001518260078110611a2f57fe5b60ff90921660209290920201525b6001811115611ac057848181518110611a5257fe5b602002602001015182602001516002830360078110611a6d57fe5b602002019060ff16908160ff1681525050600d858281518110611a8c57fe5b602002602001015160ff1681611a9e57fe5b0682600001516002830360078110611ab257fe5b60ff90921660209290920201525b6001016119b7565b50611adf8260000151836020015160006006611ce3565b611af58160000151826020015160006006611ce3565b611b0782602001518360000151611e49565b604084015260ff16606083015260208101518151611b259190611e49565b604080840182905260ff909216606080850182905285015192850151611b4e93929091906127de565b949350505050565b600082820183811015611249576040805162461bcd60e51b815260206004820152601b60248201527f536166654d6174683a206164646974696f6e206f766572666c6f770000000000604482015290519081900360640190fd5b60008184841115611c3f5760405162461bcd60e51b81526004018080602001828103825283818151815260200191508051906020019080838360005b83811015611c04578181015183820152602001611bec565b50505050905090810190601f168015611c315780820380516001836020036101000a031916815260200191505b509250505060405180910390fd5b505050900390565b80600260018201045b81811015611c7857809150600281828581611c6757fe5b040181611c7057fe5b049050611c50565b50919050565b60008183611ccd5760405162461bcd60e51b8152602060048201818152835160248401528351909283926044909101919085019080838360008315611c04578181015183820152602001611bec565b506000838581611cd957fe5b0495945050505050565b80821015611e435760008460028484010460078110611cfe57fe5b602002015160ff16905082825b82878360078110611d1857fe5b602002015160ff161115611d3157600190910190611d0b565b82878260078110611d3e57fe5b602002015160ff161015611d555760001901611d31565b808210611d6157611e14565b868160078110611d6d57fe5b6020020151878360078110611d7e57fe5b6020020151888460078110611d8f57fe5b60200201898460078110611d9f57fe5b60ff938416602091909102919091015291169052858160078110611dbf57fe5b6020020151868360078110611dd057fe5b6020020151878460078110611de157fe5b60200201888460078110611df157fe5b60ff93841660209190910291909101529116905260019091019060001901611d0b565b80851015611e2857611e2887878784611ce3565b60010183811015611e3f57611e3f87878387611ce3565b5050505b50505050565b6000611e53612989565b6000611e5d612989565b506040805160e08101825260001980825260208201819052918101829052606081018290526080810182905260a0810182905260c0810191909152611ea06129a7565b50604080516080810182526000808252602082018190529181018290526060810191909152611ecd6129c5565b50604080516101a081018252600080825260208201819052918101829052606081018290526080810182905260a0810182905260c0810182905260e081018290526101008101829052610120810182905261014081018290526101608101829052610180810182905290611f3f6129e4565b5060408051808201909152600019808252602082015260016000611f61612989565b506040805160e08101825260001980825260208201819052918101829052606081018290526080810182905260a0810182905260c0810191909152600094505b600785101561222257858c8660078110611fb757fe5b602002015160ff16600d8110611fc957fe5b60200201805160010160ff1690526006851015612081578b8560010160078110611fef57fe5b602002015160010160ff168c866007811061200657fe5b602002015160ff16141561204857600190920191600583141561204857600498508b856001016007811061203657fe5b6020020151600401600090810b900b88525b8b856001016007811061205757fe5b602002015160010160ff168c866007811061206e57fe5b602002015160ff16111561208157600192505b858c866007811061208e57fe5b602002015160ff16600d81106120a057fe5b602002015160ff1660041480156120ba575060078960ff16105b156120e257600798508b85600781106120cf57fe5b6020020151600090810b900b8852612222565b858c86600781106120ef57fe5b602002015160ff16600d811061210157fe5b602002015160ff16600314801561211b575060038960ff16105b1561214f57600398508b856007811061213057fe5b60200201518860005b602002019060000b908160000b815250506121db565b858c866007811061215c57fe5b602002015160ff16600d811061216e57fe5b602002015160ff16600214156121db57835160000b60001914156121a5578b856007811061219857fe5b6020020151846000612139565b836001602002015160000b60001914156121db578b85600781106121c557fe5b60209081029190910151600090810b900b908501525b86600d8e87600781106121ea57fe5b602002015160ff16816121f957fe5b0460ff166004811061220757fe5b60200201805160ff6001918201169091529490940193611fa1565b8860ff166007141561229b57600094505b600785101561229b57875160000b8c866007811061224d57fe5b602002015160000b14612290578b856007811061226657fe5b6020020151886001600092830b90920b60209092020152509698509496506127d795505050505050565b600190940193612233565b60058960ff1610156124ca57600094505b60048510156124ca5760058786600481106122c357fe5b602002015160ff16106124bf576000949150845b600786101561237e5782600d8f88600781106122ef57fe5b602002015160ff16816122fe57fe5b0460ff161415612373578c866007811061231457fe5b6020020151828260ff166007811061232857fe5b602002019060000b908160000b815250508c866007811061234557fe5b6020020151898260ff166007811061235957fe5b600092830b90920b60209092020152603260c08a01526001015b6001909501946122d7565b8960ff166004141561249a57600095505b600386101561249a578186600401600781106123a757fe5b60200201518287600781106123b857fe5b60200201510360000b60041480156123e857508186600401600781106123da57fe5b602002015160000b60001914155b1561248f57600899506040518060e0016040528083886007811061240857fe5b602002015160000b60000b815260200160001960000b815260200160001960000b815260200160001960000b815260200160001960000b815260200160001960000b815260200160001960000b815250985081866007811061246657fe5b602002015160000b600c141561247b57600999505b509799509597506127d79650505050505050565b60019095019461238f565b505060001960a0880181905260c088015250600598509496506127d795505050505050565b6001909401936122ac565b8860ff16600314156125e557600019846001602002015160000b131561256757602084015160069950869060000b600d811061250257fe5b602002015160ff1686856000602002015160000b600d811061252057fe5b602002015160ff161061254c5760208401518860015b602002019060000b908160000b81525050612554565b836000612266565b509698509496506127d795505050505050565b600094505b600585101561255457875160000b8c866007811061258657fe5b602002015160000b146125da578b856007811061259f57fe5b60200201518886600101600781106125b357fe5b600092830b90920b60209092020152876002602002015160000b600019146125da57612554565b60019094019361256c565b60038960ff1610156127c957836001602002015160000b600019146126cd576020840151845160029a50600091820b910b131561263b578351600090810b810b8952602080860151820b90910b90890152612655565b602080850151600090810b810b8a528551810b900b908901525b600094505b600785101561255457835160000b8c866007811061267457fe5b602002015160000b141580156126a45750602084015160000b8c866007811061269957fe5b602002015160000b14155b156126c2578b85600781106126b557fe5b6020020151886002612536565b60019094019361265a565b835160000b6000191461277f578351600090810b810b8952600199509450885b600786101561277957845160000b8d876007811061270757fe5b602002015160000b14612747578c866007811061272057fe5b6020020151898260ff166007811061273457fe5b600092830b90920b602090920201526001015b886003602002015160000b6000191461276e57509799509597506127d79650505050505050565b6001909501946126ed565b506127c9565b60009850600094505b6005851015612554578b856007811061279d57fe5b60200201518886600781106127ae57fe5b600092830b90920b6020929092020152600190940193612788565b509698509496505050505050505b9250929050565b60008260ff168560ff16111561280a578460ff166009141561280257506003611b4e565b506002611b4e565b8260ff168560ff1614156119975760005b600781101561289c5782816007811061283057fe5b602002015160000b85826007811061284457fe5b602002015160000b131561285c576002915050611b4e565b82816007811061286857fe5b602002015160000b85826007811061287c57fe5b602002015160000b1215612894576000915050611b4e565b60010161281b565b5060019050611b4e565b82805482825590600052602060002090601f0160209004810192821561293f5791602002820160005b8382111561291057833560ff1683826101000a81548160ff021916908360ff16021790555092602001926001016020816000010492830192600103026128cf565b801561293d5782816101000a81549060ff0219169055600101602081600001049283019260010302612910565b505b5061294b929150612a02565b5090565b6040518060800160405280612962612989565b815260200161296f612989565b815260200161297c612989565b8152600060209091015290565b6040518060e001604052806007906020820280388339509192915050565b60405180608001604052806004906020820280388339509192915050565b604051806101a00160405280600d906020820280388339509192915050565b60405180604001604052806002906020820280388339509192915050565b61056391905b8082111561294b57805460ff19168155600101612a0856fe4f776e61626c653a206e6577206f776e657220697320746865207a65726f2061646472657373536166654d6174683a206d756c7469706c69636174696f6e206f766572666c6f77a265627a7a723158206334a6de3be0d417aff3f9d3dea218b9c24ef22aa741481c20e317669624d13064736f6c634300050c0032",
  "linkReferences": {},
  "deployedLinkReferences": {}
}