{
  "_format": "hh-sol-artifact-1",
  "contractName": "Poker",
  "sourceName": "contracts/Poker.sol",
  "abi": [
    {
      "inputs": [
        {
          "internalType": "address",
          "name": "oracleAddress",
          "type": "address"
        },
        {
          "internalType": "address",
          "name": "poolControllerAddress",
          "type": "address"
        }
      ],
      "payable": false,
      "stateMutability": "nonpayable",
      "type": "constructor"
    },
    {
      "anonymous": false,
      "inputs": [
        {
          "indexed": false,
          "internalType": "address",
          "name": "player",
          "type": "address"
        },
        {
          "indexed": false,
          "internalType": "uint256",
          "name": "requestId",
          "type": "uint256"
        },
        {
          "indexed": false,
          "internalType": "uint256",
          "name": "betPoker",
          "type": "uint256"
        },
        {
          "indexed": false,
          "internalType": "uint256",
          "name": "betColor",
          "type": "uint256"
        },
        {
          "indexed": false,
          "internalType": "uint256",
          "name": "chosenColor",
          "type": "uint256"
        }
      ],
      "name": "GameStart",
      "type": "event"
    },
    {
      "anonymous": false,
      "inputs": [
        {
          "indexed": true,
          "internalType": "address",
          "name": "previousOwner",
          "type": "address"
        },
        {
          "indexed": true,
          "internalType": "address",
          "name": "newOwner",
          "type": "address"
        }
      ],
      "name": "OwnershipTransferred",
      "type": "event"
    },
    {
      "anonymous": false,
      "inputs": [
        {
          "indexed": false,
          "internalType": "uint256",
          "name": "winAmount",
          "type": "uint256"
        },
        {
          "indexed": false,
          "internalType": "bool",
          "name": "winColor",
          "type": "bool"
        },
        {
          "indexed": false,
          "internalType": "enum Poker.GameResults",
          "name": "winPoker",
          "type": "uint8"
        },
        {
          "indexed": false,
          "internalType": "uint256",
          "name": "requestId",
          "type": "uint256"
        },
        {
          "indexed": false,
          "internalType": "uint256",
          "name": "cards",
          "type": "uint256"
        },
        {
          "indexed": false,
          "internalType": "address",
          "name": "player",
          "type": "address"
        }
      ],
      "name": "PokerResult",
      "type": "event"
    },
    {
      "constant": false,
      "inputs": [
        {
          "internalType": "uint8[]",
          "name": "cards",
          "type": "uint8[]"
        },
        {
          "internalType": "uint256",
          "name": "requestId",
          "type": "uint256"
        },
        {
          "internalType": "uint256",
          "name": "bitCards",
          "type": "uint256"
        }
      ],
      "name": "__callback",
      "outputs": [],
      "payable": false,
      "stateMutability": "nonpayable",
      "type": "function"
    },
    {
      "constant": true,
      "inputs": [
        {
          "internalType": "uint256",
          "name": "requestId",
          "type": "uint256"
        },
        {
          "internalType": "enum Poker.GameResults",
          "name": "winPoker",
          "type": "uint8"
        },
        {
          "internalType": "bool",
          "name": "winColor",
          "type": "bool"
        }
      ],
      "name": "calculateWinAmount",
      "outputs": [
        {
          "internalType": "uint256",
          "name": "",
          "type": "uint256"
        },
        {
          "internalType": "uint256",
          "name": "",
          "type": "uint256"
        },
        {
          "internalType": "uint256",
          "name": "",
          "type": "uint256"
        }
      ],
      "payable": false,
      "stateMutability": "view",
      "type": "function"
    },
    {
      "constant": true,
      "inputs": [
        {
          "internalType": "uint256",
          "name": "requestId",
          "type": "uint256"
        },
        {
          "internalType": "uint8[]",
          "name": "colorCards",
          "type": "uint8[]"
        }
      ],
      "name": "getColorResult",
      "outputs": [
        {
          "internalType": "bool",
          "name": "",
          "type": "bool"
        }
      ],
      "payable": false,
      "stateMutability": "view",
      "type": "function"
    },
    {
      "constant": true,
      "inputs": [
        {
          "internalType": "uint256",
          "name": "requestId",
          "type": "uint256"
        }
      ],
      "name": "getGameInfo",
      "outputs": [
        {
          "internalType": "uint256",
          "name": "",
          "type": "uint256"
        },
        {
          "internalType": "uint256",
          "name": "",
          "type": "uint256"
        },
        {
          "internalType": "uint256",
          "name": "",
          "type": "uint256"
        },
        {
          "internalType": "address",
          "name": "",
          "type": "address"
        }
      ],
      "payable": false,
      "stateMutability": "view",
      "type": "function"
    },
    {
      "constant": true,
      "inputs": [],
      "name": "getHouseEdge",
      "outputs": [
        {
          "internalType": "uint256",
          "name": "",
          "type": "uint256"
        }
      ],
      "payable": false,
      "stateMutability": "view",
      "type": "function"
    },
    {
      "constant": true,
      "inputs": [],
      "name": "getJackpotFeeMultiplier",
      "outputs": [
        {
          "internalType": "uint256",
          "name": "",
          "type": "uint256"
        }
      ],
      "payable": false,
      "stateMutability": "view",
      "type": "function"
    },
    {
      "constant": true,
      "inputs": [],
      "name": "getLastGamePlayer",
      "outputs": [
        {
          "internalType": "address",
          "name": "",
          "type": "address"
        }
      ],
      "payable": false,
      "stateMutability": "view",
      "type": "function"
    },
    {
      "constant": true,
      "inputs": [],
      "name": "getLastRequestId",
      "outputs": [
        {
          "internalType": "uint256",
          "name": "",
          "type": "uint256"
        }
      ],
      "payable": false,
      "stateMutability": "view",
      "type": "function"
    },
    {
      "constant": true,
      "inputs": [],
      "name": "getMaxBet",
      "outputs": [
        {
          "internalType": "uint256",
          "name": "",
          "type": "uint256"
        }
      ],
      "payable": false,
      "stateMutability": "view",
      "type": "function"
    },
    {
      "constant": true,
      "inputs": [],
      "name": "getOracle",
      "outputs": [
        {
          "internalType": "address",
          "name": "",
          "type": "address"
        }
      ],
      "payable": false,
      "stateMutability": "view",
      "type": "function"
    },
    {
      "constant": true,
      "inputs": [
        {
          "internalType": "uint8[]",
          "name": "_cardsArray",
          "type": "uint8[]"
        }
      ],
      "name": "getPokerResult",
      "outputs": [
        {
          "internalType": "enum Poker.GameResults",
          "name": "",
          "type": "uint8"
        }
      ],
      "payable": false,
      "stateMutability": "pure",
      "type": "function"
    },
    {
      "constant": true,
      "inputs": [],
      "name": "getPoolController",
      "outputs": [
        {
          "internalType": "address",
          "name": "",
          "type": "address"
        }
      ],
      "payable": false,
      "stateMutability": "view",
      "type": "function"
    },
    {
      "constant": true,
      "inputs": [],
      "name": "isOwner",
      "outputs": [
        {
          "internalType": "bool",
          "name": "",
          "type": "bool"
        }
      ],
      "payable": false,
      "stateMutability": "view",
      "type": "function"
    },
    {
      "constant": true,
      "inputs": [],
      "name": "owner",
      "outputs": [
        {
          "internalType": "address",
          "name": "",
          "type": "address"
        }
      ],
      "payable": false,
      "stateMutability": "view",
      "type": "function"
    },
    {
      "constant": false,
      "inputs": [
        {
          "internalType": "uint256",
          "name": "betColor",
          "type": "uint256"
        },
        {
          "internalType": "uint256",
          "name": "chosenColor",
          "type": "uint256"
        }
      ],
      "name": "play",
      "outputs": [],
      "payable": true,
      "stateMutability": "payable",
      "type": "function"
    },
    {
      "constant": false,
      "inputs": [],
      "name": "renounceOwnership",
      "outputs": [],
      "payable": false,
      "stateMutability": "nonpayable",
      "type": "function"
    },
    {
      "constant": false,
      "inputs": [
        {
          "internalType": "uint256",
          "name": "houseEdge",
          "type": "uint256"
        }
      ],
      "name": "setHouseEdge",
      "outputs": [],
      "payable": false,
      "stateMutability": "nonpayable",
      "type": "function"
    },
    {
      "constant": false,
      "inputs": [
        {
          "internalType": "uint256",
          "name": "jackpotFeeMultiplier",
          "type": "uint256"
        }
      ],
      "name": "setJackpotFeeMultiplier",
      "outputs": [],
      "payable": false,
      "stateMutability": "nonpayable",
      "type": "function"
    },
    {
      "constant": false,
      "inputs": [
        {
          "internalType": "uint256",
          "name": "maxBet",
          "type": "uint256"
        }
      ],
      "name": "setMaxBet",
      "outputs": [],
      "payable": false,
      "stateMutability": "nonpayable",
      "type": "function"
    },
    {
      "constant": false,
      "inputs": [
        {
          "internalType": "address",
          "name": "oracleAddress",
          "type": "address"
        }
      ],
      "name": "setOracle",
      "outputs": [],
      "payable": false,
      "stateMutability": "nonpayable",
      "type": "function"
    },
    {
      "constant": false,
      "inputs": [
        {
          "internalType": "address",
          "name": "poolControllerAddress",
          "type": "address"
        }
      ],
      "name": "setPoolController",
      "outputs": [],
      "payable": false,
      "stateMutability": "nonpayable",
      "type": "function"
    },
    {
      "constant": true,
      "inputs": [],
      "name": "supportsIGame",
      "outputs": [
        {
          "internalType": "bool",
          "name": "",
          "type": "bool"
        }
      ],
      "payable": false,
      "stateMutability": "view",
      "type": "function"
    },
    {
      "constant": false,
      "inputs": [
        {
          "internalType": "address",
          "name": "newOwner",
          "type": "address"
        }
      ],
      "name": "transferOwnership",
      "outputs": [],
      "payable": false,
      "stateMutability": "nonpayable",
      "type": "function"
    }
  ],
  "bytecode": "0x60806040523480156200001157600080fd5b5060405162002e3038038062002e30833981810160405260408110156200003757600080fd5b508051602090910151816000620000566001600160e01b03620000fa16565b600080546001600160a01b0319166001600160a01b0383169081178255604051929350917f8be0079c531659141344cd1fd0a4f28419497f9722a3daafe3b4186f6b6457e0908290a350620000b4816001600160e01b03620000fe16565b50620000c9816001600160e01b03620001fa16565b600f600c556002600d55600e80546001600160a01b0319166001600160a01b039290921691909117905550620002f6565b3390565b6000819050806001600160a01b031663d520544c6040518163ffffffff1660e01b815260040160206040518083038186803b1580156200013d57600080fd5b505afa15801562000152573d6000803e3d6000fd5b505050506040513d60208110156200016957600080fd5b5051620001d757604080517f08c379a000000000000000000000000000000000000000000000000000000000815260206004820152601760248201527f696e76616c696420494f7261636c652061646472657373000000000000000000604482015290519081900360640190fd5b600180546001600160a01b0319166001600160a01b039290921691909117905550565b6000819050806001600160a01b031663c43a9a146040518163ffffffff1660e01b815260040160206040518083038186803b1580156200023957600080fd5b505afa1580156200024e573d6000803e3d6000fd5b505050506040513d60208110156200026557600080fd5b5051620002d357604080517f08c379a000000000000000000000000000000000000000000000000000000000815260206004820152601960248201527f706f6f6c41646472657373206d7573742062652049506f6f6c00000000000000604482015290519081900360640190fd5b600f80546001600160a01b0319166001600160a01b039290921691909117905550565b612b2a80620003066000396000f3fe6080604052600436106101805760003560e01c80637654007e116100d65780638da5cb5b1161007f578063c85f12b511610059578063c85f12b514610570578063cdca7561146105a3578063f2fde38b1461067757610180565b80638da5cb5b146105315780638f32d59b14610546578063a4ca9b951461055b57610180565b8063833b1fce116100b0578063833b1fce14610499578063881eff1e146104ae5780638b4e2e5e146104d857610180565b80637654007e1461042e5780637adbf973146104435780637bc49a951461047657610180565b80634a1f2ccb116101385780636cd0f102116101125780636cd0f102146103be5780636d30cc9d146103e8578063715018a61461041957610180565b80634a1f2ccb146103115780634cf4a29214610394578063646668b6146103a957610180565b80632f0bdbe8116101695780632f0bdbe8146101d8578063382d40ff146101ed57806347e1d550146102b857610180565b8063093484961461018557806319c2b4c3146101b1575b600080fd5b34801561019157600080fd5b506101af600480360360208110156101a857600080fd5b50356106aa565b005b3480156101bd57600080fd5b506101c6610708565b60408051918252519081900360200190f35b3480156101e457600080fd5b506101c661076b565b3480156101f957600080fd5b506102a46004803603604081101561021057600080fd5b8135919081019060408101602082013564010000000081111561023257600080fd5b82018360208201111561024457600080fd5b8035906020019184602083028401116401000000008311171561026657600080fd5b919080806020026020016040519081016040528093929190818152602001838360200280828437600092019190915250929550610771945050505050565b604080519115158252519081900360200190f35b3480156102c457600080fd5b506102e2600480360360208110156102db57600080fd5b50356107f9565b604080519485526020850193909352838301919091526001600160a01b03166060830152519081900360800190f35b34801561031d57600080fd5b506101af6004803603606081101561033457600080fd5b81019060208101813564010000000081111561034f57600080fd5b82018360208201111561036157600080fd5b8035906020019184602083028401116401000000008311171561038357600080fd5b91935091508035906020013561082a565b3480156103a057600080fd5b506101c661099a565b3480156103b557600080fd5b506101c66109a0565b3480156103ca57600080fd5b506101af600480360360208110156103e157600080fd5b50356109a6565b3480156103f457600080fd5b506103fd610a04565b604080516001600160a01b039092168252519081900360200190f35b34801561042557600080fd5b506101af610a13565b34801561043a57600080fd5b506102a4610ab6565b34801561044f57600080fd5b506101af6004803603602081101561046657600080fd5b50356001600160a01b0316610abb565b6101af6004803603604081101561048c57600080fd5b5080359060200135610b20565b3480156104a557600080fd5b506103fd610e35565b3480156104ba57600080fd5b506101af600480360360208110156104d157600080fd5b5035610e44565b3480156104e457600080fd5b50610513600480360360608110156104fb57600080fd5b5080359060ff60208201351690604001351515610ea2565b60408051938452602084019290925282820152519081900360600190f35b34801561053d57600080fd5b506103fd611087565b34801561055257600080fd5b506102a4611096565b34801561056757600080fd5b506103fd6110ba565b34801561057c57600080fd5b506101af6004803603602081101561059357600080fd5b50356001600160a01b03166110db565b3480156105af57600080fd5b50610653600480360360208110156105c657600080fd5b8101906020810181356401000000008111156105e157600080fd5b8201836020820111156105f357600080fd5b8035906020019184602083028401116401000000008311171561061557600080fd5b91908080602002602001604051908101604052809392919081815260200183836020028082843760009201919091525092955061113d945050505050565b6040518082600381111561066357fe5b60ff16815260200191505060405180910390f35b34801561068357600080fd5b506101af6004803603602081101561069a57600080fd5b50356001600160a01b03166112f1565b6106b2611096565b610703576040805162461bcd60e51b815260206004820181905260248201527f4f776e61626c653a2063616c6c6572206973206e6f7420746865206f776e6572604482015290519081900360640190fd5b600d55565b6000610712611096565b610763576040805162461bcd60e51b815260206004820181905260248201527f4f776e61626c653a2063616c6c6572206973206e6f7420746865206f776e6572604482015290519081900360640190fd5b506002545b90565b600d5490565b6000828152601060205260408120600201548190815b84518110156107eb57816002600d8784815181106107a157fe5b602002602001015160ff16816107b357fe5b0460ff16816107be57fe5b0660ff1614156107cf576001909201915b600283106107e357600193505050506107f3565b600101610787565b506000925050505b92915050565b600090815260106020526040902080546001820154600283015460039093015491939092916001600160a01b031690565b6001546001600160a01b03163314610889576040805162461bcd60e51b815260206004820152601860248201527f63616c6c6572206973206e6f7420746865206f7261636c650000000000000000604482015290519081900360640190fd5b60008281526003602052604090206001808201805467ffffffffffffffff19164267ffffffffffffffff16179055600182015468010000000000000000900460ff1660028111156108d657fe5b14610928576040805162461bcd60e51b815260206004820152601660248201527f7265717565737420616c726561647920636c6f73656400000000000000000000604482015290519081900360640190fd5b60018101805468ff0000000000000000191668020000000000000000179055610952818686612934565b506109938585808060200260200160405190810160405280939291908181526020018383602002808284376000920191909152508792508691506113539050565b5050505050565b600c5490565b600b5490565b6109ae611096565b6109ff576040805162461bcd60e51b815260206004820181905260248201527f4f776e61626c653a2063616c6c6572206973206e6f7420746865206f776e6572604482015290519081900360640190fd5b600c55565b600f546001600160a01b031690565b610a1b611096565b610a6c576040805162461bcd60e51b815260206004820181905260248201527f4f776e61626c653a2063616c6c6572206973206e6f7420746865206f776e6572604482015290519081900360640190fd5b600080546040516001600160a01b03909116907f8be0079c531659141344cd1fd0a4f28419497f9722a3daafe3b4186f6b6457e0908390a3600080546001600160a01b0319169055565b600190565b610ac3611096565b610b14576040805162461bcd60e51b815260206004820181905260248201527f4f776e61626c653a2063616c6c6572206973206e6f7420746865206f776e6572604482015290519081900360640190fd5b610b1d81611747565b50565b6000610b32348463ffffffff61182516565b600f54600d549192506001600160a01b03169063f80fb76d90610b70906103e890610b6490869063ffffffff61186e16565b9063ffffffff6118c716565b6040518263ffffffff1660e01b815260040180828152602001915050600060405180830381600087803b158015610ba657600080fd5b505af1158015610bba573d6000803e3d6000fd5b505050506000600f60009054906101000a90046001600160a01b03166001600160a01b0316633c793d496040518163ffffffff1660e01b815260040160206040518083038186803b158015610c0e57600080fd5b505afa158015610c22573d6000803e3d6000fd5b505050506040513d6020811015610c3857600080fd5b50519050610c546103e8610b64836103f763ffffffff61186e16565b3411610ca7576040805162461bcd60e51b815260206004820152600d60248201527f42657420746f6f20736d616c6c00000000000000000000000000000000000000604482015290519081900360640190fd5b600b5415610d0657600b54341115610d06576040805162461bcd60e51b815260206004820152600b60248201527f42657420746f6f20626967000000000000000000000000000000000000000000604482015290519081900360640190fd5b600f5460408051634707fff760e01b81523460048201819052915133936001600160a01b031692634707fff7929091602480830192600092919082900301818588803b158015610d5557600080fd5b505af1158015610d69573d6000803e3d6000fd5b5050505050610d76611909565b604080516080808201835287825260208083018781528385018981526001600160a01b038781166060808801828152600280546000908152601089528b902099518a55955160018a01559351888601559251600390970180546001600160a01b0319169790921696909617905590548551948552918401919091528284018790528201889052810186905290517f9f7662fde0da14f283971fa9b8c0535cfce3f0a658d3f2c229ec255bd82517299160a0908290030190a15050505050565b6001546001600160a01b031690565b610e4c611096565b610e9d576040805162461bcd60e51b815260206004820181905260248201527f4f776e61626c653a2063616c6c6572206973206e6f7420746865206f776e6572604482015290519081900360640190fd5b600b55565b600083815260106020526040812060018101549054600c54839283928392839291908390610edf906103e890610b6490869063ffffffff61186e16565b9050600080610eff6103e8610b64600d548861186e90919063ffffffff16565b905060008b15610f6057610f246103e8610b64600c548861186e90919063ffffffff16565b9250610f36818463ffffffff611a8e16565b9050610f5d83610f51600d548861186e90919063ffffffff16565b9063ffffffff61182516565b96505b60018d6003811115610f6e57fe5b1415610f9957610f96610f898786850163ffffffff61182516565b899063ffffffff611a8e16565b97505b60028d6003811115610fa757fe5b1415610fdc57610fbd818563ffffffff611a8e16565b9050610fd9610f89858401610f5189600263ffffffff61186e16565b97505b60038d6003811115610fea57fe5b141561107257600f54604080516324ca419b60e21b8152905161106f926001600160a01b031691639329066c916004808301926020929190829003018186803b15801561103657600080fd5b505afa15801561104a573d6000803e3d6000fd5b505050506040513d602081101561106057600080fd5b5051899063ffffffff611a8e16565b97505b969d959c50959a509398505050505050505050565b6000546001600160a01b031690565b600080546001600160a01b03166110ab611ae8565b6001600160a01b031614905090565b6002546000908152601060205260409020600301546001600160a01b031690565b6110e3611096565b611134576040805162461bcd60e51b815260206004820181905260248201527f4f776e61626c653a2063616c6c6572206973206e6f7420746865206f776e6572604482015290519081900360640190fd5b610b1d81611aec565b60006111476129dd565b61114f6129dd565b60005b84518110156112635760078110156111d85784818151811061117057fe5b60200260200101518360200151826007811061118857fe5b602002019060ff16908160ff1681525050600d8582815181106111a757fe5b602002602001015160ff16816111b957fe5b06836000015182600781106111ca57fe5b60ff90921660209290920201525b600181111561125b578481815181106111ed57fe5b60200260200101518260200151600283036007811061120857fe5b602002019060ff16908160ff1681525050600d85828151811061122757fe5b602002602001015160ff168161123957fe5b068260000151600283036007811061124d57fe5b60ff90921660209290920201525b600101611152565b5061127a8260000151836020015160006006611bca565b6112908160000151826020015160006006611bca565b6112a282602001518360000151611d30565b604084015260ff166060830152602081015181516112c09190611d30565b604080840182905260ff9092166060808501829052850151928501516112e993929091906126c5565b949350505050565b6112f9611096565b61134a576040805162461bcd60e51b815260206004820181905260248201527f4f776e61626c653a2063616c6c6572206973206e6f7420746865206f776e6572604482015290519081900360640190fd5b610b1d81612798565b600082815260106020526040812060018101549054600d5483929190839061138a906103e890610b6490869063ffffffff61186e16565b905060006113a96103e8610b64600c548761186e90919063ffffffff16565b6000898152601060205260408120600381015490549293506001600160a01b0316911561148a576040805160038082526080820190925260609160208201838038833901905050905060025b600581101561143b578c818151811061140a57fe5b602002602001015182600283038151811061142157fe5b60ff909216602092830291909101909101526001016113f5565b506114468b82610771565b15611488576114666103e8610b64600c548961186e90919063ffffffff16565b975061148188610f51600d548961186e90919063ffffffff16565b9850600191505b505b60006114958c61113d565b905060018160038111156114a557fe5b14156114d4576114cd6114c08886880163ffffffff61182516565b8a9063ffffffff611a8e16565b9850611592565b60028160038111156114e257fe5b1415611502576114cd6114c0858701610f518a600263ffffffff61186e16565b600381600381111561151057fe5b141561159257600f546040805163034cdc3360e61b81526001600160a01b0386811660048301529151919092169163d3370cc09160248083019260209291908290030181600087803b15801561156557600080fd5b505af1158015611579573d6000803e3d6000fd5b505050506040513d602081101561158f57600080fd5b50505b88156116bf57600f5460408051632617af2760e11b81526001600160a01b038681166004830152602482018d905291519190921691634c2f5e4e9160448083019260209291908290030181600087803b1580156115ee57600080fd5b505af1158015611602573d6000803e3d6000fd5b505050506040513d602081101561161857600080fd5b50849050821561163557611632818a63ffffffff611a8e16565b90505b600182600381111561164357fe5b146116bd57600f546040805163410af79d60e01b81526001600160a01b038781166004830152602482018e9052604482018590529151919092169163410af79d91606480830192600092919082900301818387803b1580156116a457600080fd5b505af11580156116b8573d6000803e3d6000fd5b505050505b505b7fbf64c19d208f47f672f9b8726702b523f305e73d59af9cf576e9092fdfd28fcc8983838e8e88604051808781526020018615151515815260200185600381111561170657fe5b60ff1681526020810194909452506040808401929092526001600160a01b0316606083015251908190036080019350915050a1505050505050505050505050565b6000819050806001600160a01b031663d520544c6040518163ffffffff1660e01b815260040160206040518083038186803b15801561178557600080fd5b505afa158015611799573d6000803e3d6000fd5b505050506040513d60208110156117af57600080fd5b5051611802576040805162461bcd60e51b815260206004820152601760248201527f696e76616c696420494f7261636c652061646472657373000000000000000000604482015290519081900360640190fd5b600180546001600160a01b0319166001600160a01b039290921691909117905550565b600061186783836040518060400160405280601e81526020017f536166654d6174683a207375627472616374696f6e206f766572666c6f770000815250612838565b9392505050565b60008261187d575060006107f3565b8282028284828161188a57fe5b04146118675760405162461bcd60e51b8152600401808060200182810382526021815260200180612ad56021913960400191505060405180910390fd5b600061186783836040518060400160405280601a81526020017f536166654d6174683a206469766973696f6e206279207a65726f0000000000008152506128cf565b60015460408051633acfa2ed60e21b815290516000926001600160a01b03169163eb3e8bb491600480830192602092919082900301818787803b15801561194f57600080fd5b505af1158015611963573d6000803e3d6000fd5b505050506040513d602081101561197957600080fd5b50516000818152600360205260409020600101549091504267ffffffffffffffff90811662093a7f1901911611156119f8576040805162461bcd60e51b815260206004820152601660248201527f72657175657374496420616c7265616479207573656400000000000000000000604482015290519081900360640190fd5b6001546040805163090b063f60e41b81526004810184905290516001600160a01b03909216916390b063f09160248082019260009290919082900301818387803b158015611a4557600080fd5b505af1158015611a59573d6000803e3d6000fd5b5050506000828152600360205260409020600101805468ff000000000000000019166801000000000000000017905550600255565b600082820183811015611867576040805162461bcd60e51b815260206004820152601b60248201527f536166654d6174683a206164646974696f6e206f766572666c6f770000000000604482015290519081900360640190fd5b3390565b6000819050806001600160a01b031663c43a9a146040518163ffffffff1660e01b815260040160206040518083038186803b158015611b2a57600080fd5b505afa158015611b3e573d6000803e3d6000fd5b505050506040513d6020811015611b5457600080fd5b5051611ba7576040805162461bcd60e51b815260206004820152601960248201527f706f6f6c41646472657373206d7573742062652049506f6f6c00000000000000604482015290519081900360640190fd5b600f80546001600160a01b0319166001600160a01b039290921691909117905550565b80821015611d2a5760008460028484010460078110611be557fe5b602002015160ff16905082825b82878360078110611bff57fe5b602002015160ff161115611c1857600190910190611bf2565b82878260078110611c2557fe5b602002015160ff161015611c3c5760001901611c18565b808210611c4857611cfb565b868160078110611c5457fe5b6020020151878360078110611c6557fe5b6020020151888460078110611c7657fe5b60200201898460078110611c8657fe5b60ff938416602091909102919091015291169052858160078110611ca657fe5b6020020151868360078110611cb757fe5b6020020151878460078110611cc857fe5b60200201888460078110611cd857fe5b60ff93841660209190910291909101529116905260019091019060001901611bf2565b80851015611d0f57611d0f87878784611bca565b60010183811015611d2657611d2687878387611bca565b5050505b50505050565b6000611d3a612a17565b6000611d44612a17565b506040805160e08101825260001980825260208201819052918101829052606081018290526080810182905260a0810182905260c0810191909152611d87612a35565b50604080516080810182526000808252602082018190529181018290526060810191909152611db4612a53565b50604080516101a081018252600080825260208201819052918101829052606081018290526080810182905260a0810182905260c0810182905260e081018290526101008101829052610120810182905261014081018290526101608101829052610180810182905290611e26612a72565b5060408051808201909152600019808252602082015260016000611e48612a17565b506040805160e08101825260001980825260208201819052918101829052606081018290526080810182905260a0810182905260c0810191909152600094505b600785101561210957858c8660078110611e9e57fe5b602002015160ff16600d8110611eb057fe5b60200201805160010160ff1690526006851015611f68578b8560010160078110611ed657fe5b602002015160010160ff168c8660078110611eed57fe5b602002015160ff161415611f2f576001909201916005831415611f2f57600498508b8560010160078110611f1d57fe5b6020020151600401600090810b900b88525b8b8560010160078110611f3e57fe5b602002015160010160ff168c8660078110611f5557fe5b602002015160ff161115611f6857600192505b858c8660078110611f7557fe5b602002015160ff16600d8110611f8757fe5b602002015160ff166004148015611fa1575060078960ff16105b15611fc957600798508b8560078110611fb657fe5b6020020151600090810b900b8852612109565b858c8660078110611fd657fe5b602002015160ff16600d8110611fe857fe5b602002015160ff166003148015612002575060038960ff16105b1561203657600398508b856007811061201757fe5b60200201518860005b602002019060000b908160000b815250506120c2565b858c866007811061204357fe5b602002015160ff16600d811061205557fe5b602002015160ff16600214156120c257835160000b600019141561208c578b856007811061207f57fe5b6020020151846000612020565b836001602002015160000b60001914156120c2578b85600781106120ac57fe5b60209081029190910151600090810b900b908501525b86600d8e87600781106120d157fe5b602002015160ff16816120e057fe5b0460ff16600481106120ee57fe5b60200201805160ff6001918201169091529490940193611e88565b8860ff166007141561218257600094505b600785101561218257875160000b8c866007811061213457fe5b602002015160000b14612177578b856007811061214d57fe5b6020020151886001600092830b90920b60209092020152509698509496506126be95505050505050565b60019094019361211a565b60058960ff1610156123b157600094505b60048510156123b15760058786600481106121aa57fe5b602002015160ff16106123a6576000949150845b60078610156122655782600d8f88600781106121d657fe5b602002015160ff16816121e557fe5b0460ff16141561225a578c86600781106121fb57fe5b6020020151828260ff166007811061220f57fe5b602002019060000b908160000b815250508c866007811061222c57fe5b6020020151898260ff166007811061224057fe5b600092830b90920b60209092020152603260c08a01526001015b6001909501946121be565b8960ff166004141561238157600095505b60038610156123815781866004016007811061228e57fe5b602002015182876007811061229f57fe5b60200201510360000b60041480156122cf57508186600401600781106122c157fe5b602002015160000b60001914155b1561237657600899506040518060e001604052808388600781106122ef57fe5b602002015160000b60000b815260200160001960000b815260200160001960000b815260200160001960000b815260200160001960000b815260200160001960000b815260200160001960000b815250985081866007811061234d57fe5b602002015160000b600c141561236257600999505b509799509597506126be9650505050505050565b600190950194612276565b505060001960a0880181905260c088015250600598509496506126be95505050505050565b600190940193612193565b8860ff16600314156124cc57600019846001602002015160000b131561244e57602084015160069950869060000b600d81106123e957fe5b602002015160ff1686856000602002015160000b600d811061240757fe5b602002015160ff16106124335760208401518860015b602002019060000b908160000b8152505061243b565b83600061214d565b509698509496506126be95505050505050565b600094505b600585101561243b57875160000b8c866007811061246d57fe5b602002015160000b146124c1578b856007811061248657fe5b602002015188866001016007811061249a57fe5b600092830b90920b60209092020152876002602002015160000b600019146124c15761243b565b600190940193612453565b60038960ff1610156126b057836001602002015160000b600019146125b4576020840151845160029a50600091820b910b1315612522578351600090810b810b8952602080860151820b90910b9089015261253c565b602080850151600090810b810b8a528551810b900b908901525b600094505b600785101561243b57835160000b8c866007811061255b57fe5b602002015160000b1415801561258b5750602084015160000b8c866007811061258057fe5b602002015160000b14155b156125a9578b856007811061259c57fe5b602002015188600261241d565b600190940193612541565b835160000b60001914612666578351600090810b810b8952600199509450885b600786101561266057845160000b8d87600781106125ee57fe5b602002015160000b1461262e578c866007811061260757fe5b6020020151898260ff166007811061261b57fe5b600092830b90920b602090920201526001015b886003602002015160000b6000191461265557509799509597506126be9650505050505050565b6001909501946125d4565b506126b0565b60009850600094505b600585101561243b578b856007811061268457fe5b602002015188866007811061269557fe5b600092830b90920b602092909202015260019094019361266f565b509698509496505050505050505b9250929050565b60008260ff168560ff1611156126f1578460ff16600914156126e9575060036112e9565b5060026112e9565b8260ff168560ff16141561278d5760005b60078110156127835782816007811061271757fe5b602002015160000b85826007811061272b57fe5b602002015160000b13156127435760029150506112e9565b82816007811061274f57fe5b602002015160000b85826007811061276357fe5b602002015160000b121561277b5760009150506112e9565b600101612702565b50600190506112e9565b506000949350505050565b6001600160a01b0381166127dd5760405162461bcd60e51b8152600401808060200182810382526026815260200180612aaf6026913960400191505060405180910390fd5b600080546040516001600160a01b03808516939216917f8be0079c531659141344cd1fd0a4f28419497f9722a3daafe3b4186f6b6457e091a3600080546001600160a01b0319166001600160a01b0392909216919091179055565b600081848411156128c75760405162461bcd60e51b81526004018080602001828103825283818151815260200191508051906020019080838360005b8381101561288c578181015183820152602001612874565b50505050905090810190601f1680156128b95780820380516001836020036101000a031916815260200191505b509250505060405180910390fd5b505050900390565b6000818361291e5760405162461bcd60e51b815260206004820181815283516024840152835190928392604490910191908501908083836000831561288c578181015183820152602001612874565b50600083858161292a57fe5b0495945050505050565b82805482825590600052602060002090601f016020900481019282156129cd5791602002820160005b8382111561299e57833560ff1683826101000a81548160ff021916908360ff160217905550926020019260010160208160000104928301926001030261295d565b80156129cb5782816101000a81549060ff021916905560010160208160000104928301926001030261299e565b505b506129d9929150612a90565b5090565b60405180608001604052806129f0612a17565b81526020016129fd612a17565b8152602001612a0a612a17565b8152600060209091015290565b6040518060e001604052806007906020820280388339509192915050565b60405180608001604052806004906020820280388339509192915050565b604051806101a00160405280600d906020820280388339509192915050565b60405180604001604052806002906020820280388339509192915050565b61076891905b808211156129d957805460ff19168155600101612a9656fe4f776e61626c653a206e6577206f776e657220697320746865207a65726f2061646472657373536166654d6174683a206d756c7469706c69636174696f6e206f766572666c6f77a265627a7a723158202effbc3de45316d7d9d01f17bdbd03fd64d222730a49490fd99914932b9ff57564736f6c634300050c0032",
  "linkReferences": {},
  "deployedLinkReferences": {}
}