{
  "_format": "hh-sol-artifact-1",
  "contractName": "PoolController",
  "sourceName": "contracts/PoolController.sol",
  "abi": [
    {
      "inputs": [
        {
          "internalType": "address",
          "name": "xEthTokenAddress",
          "type": "address"
        }
      ],
      "payable": false,
      "stateMutability": "nonpayable",
      "type": "constructor"
    },
    {
      "anonymous": false,
      "inputs": [
        {
          "indexed": false,
          "internalType": "address",
          "name": "player",
          "type": "address"
        },
        {
          "indexed": false,
          "internalType": "uint256",
          "name": "amount",
          "type": "uint256"
        }
      ],
      "name": "JackpotWin",
      "type": "event"
    },
    {
      "anonymous": false,
      "inputs": [
        {
          "indexed": true,
          "internalType": "address",
          "name": "previousOwner",
          "type": "address"
        },
        {
          "indexed": true,
          "internalType": "address",
          "name": "newOwner",
          "type": "address"
        }
      ],
      "name": "OwnershipTransferred",
      "type": "event"
    },
    {
      "anonymous": false,
      "inputs": [
        {
          "indexed": false,
          "internalType": "address",
          "name": "referee",
          "type": "address"
        },
        {
          "indexed": false,
          "internalType": "address",
          "name": "referral",
          "type": "address"
        }
      ],
      "name": "RegisteredReferer",
      "type": "event"
    },
    {
      "constant": false,
      "inputs": [
        {
          "internalType": "uint256",
          "name": "betAmount",
          "type": "uint256"
        }
      ],
      "name": "addBetToPool",
      "outputs": [],
      "payable": true,
      "stateMutability": "payable",
      "type": "function"
    },
    {
      "constant": false,
      "inputs": [
        {
          "internalType": "address",
          "name": "parent",
          "type": "address"
        },
        {
          "internalType": "address",
          "name": "son",
          "type": "address"
        }
      ],
      "name": "addRef",
      "outputs": [],
      "payable": false,
      "stateMutability": "nonpayable",
      "type": "function"
    },
    {
      "constant": false,
      "inputs": [
        {
          "internalType": "address",
          "name": "account",
          "type": "address"
        }
      ],
      "name": "addToWhitelist",
      "outputs": [],
      "payable": false,
      "stateMutability": "nonpayable",
      "type": "function"
    },
    {
      "constant": true,
      "inputs": [
        {
          "internalType": "uint256",
          "name": "amount",
          "type": "uint256"
        }
      ],
      "name": "canWithdraw",
      "outputs": [
        {
          "internalType": "uint256",
          "name": "",
          "type": "uint256"
        }
      ],
      "payable": false,
      "stateMutability": "view",
      "type": "function"
    },
    {
      "constant": false,
      "inputs": [
        {
          "internalType": "address",
          "name": "_to",
          "type": "address"
        }
      ],
      "name": "deposit",
      "outputs": [],
      "payable": true,
      "stateMutability": "payable",
      "type": "function"
    },
    {
      "constant": true,
      "inputs": [],
      "name": "getBonusPercentMilestones",
      "outputs": [
        {
          "internalType": "uint256[7]",
          "name": "",
          "type": "uint256[7]"
        }
      ],
      "payable": false,
      "stateMutability": "view",
      "type": "function"
    },
    {
      "constant": true,
      "inputs": [],
      "name": "getGame",
      "outputs": [
        {
          "internalType": "address",
          "name": "",
          "type": "address"
        }
      ],
      "payable": false,
      "stateMutability": "view",
      "type": "function"
    },
    {
      "constant": true,
      "inputs": [],
      "name": "getJackpot",
      "outputs": [
        {
          "internalType": "uint256",
          "name": "",
          "type": "uint256"
        }
      ],
      "payable": false,
      "stateMutability": "view",
      "type": "function"
    },
    {
      "constant": true,
      "inputs": [],
      "name": "getJackpotLimit",
      "outputs": [
        {
          "internalType": "uint256",
          "name": "",
          "type": "uint256"
        }
      ],
      "payable": false,
      "stateMutability": "view",
      "type": "function"
    },
    {
      "constant": true,
      "inputs": [],
      "name": "getOracleGasFee",
      "outputs": [
        {
          "internalType": "uint256",
          "name": "",
          "type": "uint256"
        }
      ],
      "payable": false,
      "stateMutability": "view",
      "type": "function"
    },
    {
      "constant": true,
      "inputs": [],
      "name": "getOracleOperator",
      "outputs": [
        {
          "internalType": "address",
          "name": "",
          "type": "address"
        }
      ],
      "payable": false,
      "stateMutability": "view",
      "type": "function"
    },
    {
      "constant": true,
      "inputs": [],
      "name": "getPoolAmount",
      "outputs": [
        {
          "internalType": "uint256",
          "name": "",
          "type": "uint256"
        }
      ],
      "payable": false,
      "stateMutability": "view",
      "type": "function"
    },
    {
      "constant": true,
      "inputs": [],
      "name": "getPoolInfo",
      "outputs": [
        {
          "internalType": "address",
          "name": "",
          "type": "address"
        },
        {
          "internalType": "uint256",
          "name": "",
          "type": "uint256"
        },
        {
          "internalType": "uint256",
          "name": "",
          "type": "uint256"
        },
        {
          "internalType": "uint256",
          "name": "",
          "type": "uint256"
        }
      ],
      "payable": false,
      "stateMutability": "view",
      "type": "function"
    },
    {
      "constant": true,
      "inputs": [
        {
          "internalType": "address",
          "name": "referee",
          "type": "address"
        }
      ],
      "name": "getReferralStats",
      "outputs": [
        {
          "internalType": "address",
          "name": "",
          "type": "address"
        },
        {
          "internalType": "uint256",
          "name": "",
          "type": "uint256"
        },
        {
          "internalType": "uint256",
          "name": "",
          "type": "uint256"
        },
        {
          "internalType": "uint256",
          "name": "",
          "type": "uint256"
        },
        {
          "internalType": "uint256",
          "name": "",
          "type": "uint256"
        }
      ],
      "payable": false,
      "stateMutability": "view",
      "type": "function"
    },
    {
      "constant": true,
      "inputs": [],
      "name": "getTotalWinningsMilestones",
      "outputs": [
        {
          "internalType": "uint256[7]",
          "name": "",
          "type": "uint256[7]"
        }
      ],
      "payable": false,
      "stateMutability": "view",
      "type": "function"
    },
    {
      "constant": true,
      "inputs": [],
      "name": "isOwner",
      "outputs": [
        {
          "internalType": "bool",
          "name": "",
          "type": "bool"
        }
      ],
      "payable": false,
      "stateMutability": "view",
      "type": "function"
    },
    {
      "constant": false,
      "inputs": [
        {
          "internalType": "address payable",
          "name": "player",
          "type": "address"
        }
      ],
      "name": "jackpotDistribution",
      "outputs": [
        {
          "internalType": "bool",
          "name": "",
          "type": "bool"
        }
      ],
      "payable": false,
      "stateMutability": "nonpayable",
      "type": "function"
    },
    {
      "constant": true,
      "inputs": [],
      "name": "owner",
      "outputs": [
        {
          "internalType": "address",
          "name": "",
          "type": "address"
        }
      ],
      "payable": false,
      "stateMutability": "view",
      "type": "function"
    },
    {
      "constant": false,
      "inputs": [
        {
          "internalType": "address",
          "name": "account",
          "type": "address"
        }
      ],
      "name": "removeFromWhitelist",
      "outputs": [],
      "payable": false,
      "stateMutability": "nonpayable",
      "type": "function"
    },
    {
      "constant": false,
      "inputs": [],
      "name": "renounceOwnership",
      "outputs": [],
      "payable": false,
      "stateMutability": "nonpayable",
      "type": "function"
    },
    {
      "constant": false,
      "inputs": [
        {
          "internalType": "address payable",
          "name": "player",
          "type": "address"
        },
        {
          "internalType": "uint256",
          "name": "prize",
          "type": "uint256"
        }
      ],
      "name": "rewardDisribution",
      "outputs": [
        {
          "internalType": "bool",
          "name": "",
          "type": "bool"
        }
      ],
      "payable": false,
      "stateMutability": "nonpayable",
      "type": "function"
    },
    {
      "constant": false,
      "inputs": [
        {
          "internalType": "uint256[]",
          "name": "newBonusPercent",
          "type": "uint256[]"
        }
      ],
      "name": "setBonusPercentMilestones",
      "outputs": [],
      "payable": false,
      "stateMutability": "nonpayable",
      "type": "function"
    },
    {
      "constant": false,
      "inputs": [
        {
          "internalType": "address",
          "name": "gameAddress",
          "type": "address"
        }
      ],
      "name": "setGame",
      "outputs": [],
      "payable": false,
      "stateMutability": "nonpayable",
      "type": "function"
    },
    {
      "constant": false,
      "inputs": [
        {
          "internalType": "uint256",
          "name": "jackpot",
          "type": "uint256"
        }
      ],
      "name": "setJackpot",
      "outputs": [],
      "payable": false,
      "stateMutability": "nonpayable",
      "type": "function"
    },
    {
      "constant": false,
      "inputs": [
        {
          "internalType": "uint256",
          "name": "jackpotLimit",
          "type": "uint256"
        }
      ],
      "name": "setJackpotLimit",
      "outputs": [],
      "payable": false,
      "stateMutability": "nonpayable",
      "type": "function"
    },
    {
      "constant": false,
      "inputs": [
        {
          "internalType": "uint256",
          "name": "oracleGasFee",
          "type": "uint256"
        }
      ],
      "name": "setOracleGasFee",
      "outputs": [],
      "payable": false,
      "stateMutability": "nonpayable",
      "type": "function"
    },
    {
      "constant": false,
      "inputs": [
        {
          "internalType": "address",
          "name": "oracleOperator",
          "type": "address"
        }
      ],
      "name": "setOracleOperator",
      "outputs": [],
      "payable": false,
      "stateMutability": "nonpayable",
      "type": "function"
    },
    {
      "constant": false,
      "inputs": [
        {
          "internalType": "uint256[]",
          "name": "newTotalWinningMilestones",
          "type": "uint256[]"
        }
      ],
      "name": "setTotalWinningsMilestones",
      "outputs": [],
      "payable": false,
      "stateMutability": "nonpayable",
      "type": "function"
    },
    {
      "constant": true,
      "inputs": [],
      "name": "supportsIPool",
      "outputs": [
        {
          "internalType": "bool",
          "name": "",
          "type": "bool"
        }
      ],
      "payable": false,
      "stateMutability": "view",
      "type": "function"
    },
    {
      "constant": false,
      "inputs": [],
      "name": "takeOracleFee",
      "outputs": [],
      "payable": false,
      "stateMutability": "nonpayable",
      "type": "function"
    },
    {
      "constant": false,
      "inputs": [
        {
          "internalType": "address",
          "name": "newOwner",
          "type": "address"
        }
      ],
      "name": "transferOwnership",
      "outputs": [],
      "payable": false,
      "stateMutability": "nonpayable",
      "type": "function"
    },
    {
      "constant": false,
      "inputs": [
        {
          "internalType": "uint256",
          "name": "amount",
          "type": "uint256"
        }
      ],
      "name": "updateJackpot",
      "outputs": [],
      "payable": false,
      "stateMutability": "nonpayable",
      "type": "function"
    },
    {
      "constant": false,
      "inputs": [
        {
          "internalType": "address",
          "name": "referral",
          "type": "address"
        },
        {
          "internalType": "uint256",
          "name": "amount",
          "type": "uint256"
        },
        {
          "internalType": "uint256",
          "name": "betEdge",
          "type": "uint256"
        }
      ],
      "name": "updateReferralStats",
      "outputs": [],
      "payable": false,
      "stateMutability": "nonpayable",
      "type": "function"
    },
    {
      "constant": false,
      "inputs": [
        {
          "internalType": "uint256",
          "name": "amount",
          "type": "uint256"
        }
      ],
      "name": "withdraw",
      "outputs": [],
      "payable": false,
      "stateMutability": "nonpayable",
      "type": "function"
    },
    {
      "constant": false,
      "inputs": [
        {
          "internalType": "address payable",
          "name": "player",
          "type": "address"
        }
      ],
      "name": "withdrawReferralEarnings",
      "outputs": [],
      "payable": false,
      "stateMutability": "nonpayable",
      "type": "function"
    }
  ],
  "bytecode": "0x60806040523480156200001157600080fd5b50604051620020c5380380620020c5833981810160405260208110156200003757600080fd5b505160006200004e6001600160e01b036200029016565b600080546001600160a01b0319166001600160a01b0383169081178255604051929350917f8be0079c531659141344cd1fd0a4f28419497f9722a3daafe3b4186f6b6457e0908290a3506000819050806001600160a01b031663495d8b346040518163ffffffff1660e01b815260040160206040518083038186803b158015620000d757600080fd5b505afa158015620000ec573d6000803e3d6000fd5b505050506040513d60208110156200010357600080fd5b50516200017157604080517f08c379a000000000000000000000000000000000000000000000000000000000815260206004820152601460248201527f696e76616c696420785452582061646472657373000000000000000000000000604482015290519081900360640190fd5b601580546001600160a01b0319166001600160a01b03831617905562b71b00601755600160126000620001a362000290565b6001600160a01b0316815260208082019290925260409081016000908120805460ff191694151594909417909355805160e0810182529283526404a817c80091830191909152640df84758009082015264174876e8006060820152642098a6780060808201526429e8d6080060a082015264333905980060c08201526200022f90600190600762000295565b506040805160e081018252600181526002602082015260049181019190915260066060820152600860808201819052600a60a0830152600c60c083015262000279916007620002e1565b50506207a120600f5550620f424060105562000334565b335b90565b8260078101928215620002cf579160200282015b82811115620002cf578251829064ffffffffff16905591602001919060010190620002a9565b50620002dd92915062000317565b5090565b8260078101928215620002cf579160200282015b82811115620002cf578251829060ff16905591602001919060010190620002f5565b6200029291905b80821115620002dd57600081556001016200031e565b611d8180620003446000396000f3fe6080604052600436106102345760003560e01c8063715018a611610138578063b9d098fd116100b0578063ec85735a1161007f578063f340fa0111610064578063f340fa011461084a578063f80fb76d14610870578063fbe85f061461089a57610234565b8063ec85735a1461079a578063f2fde38b1461081757610234565b8063b9d098fd146106f5578063c43a9a141461071f578063d3370cc014610734578063e43252d71461076757610234565b80638f32d59b11610107578063ae2ad111116100ec578063ae2ad1111461060a578063aff7747e1461063d578063b83536311461067857610234565b80638f32d59b146105e05780639329066c146105f557610234565b8063715018a614610550578063819912a2146105655780638ab1d681146105985780638da5cb5b146105cb57610234565b8063410af79d116101cb5780634ab4ba421161019a57806351d1dc081161017f57806351d1dc08146104cc57806359992cc8146104e157806360246c881461050b57610234565b80634ab4ba421461046a5780634c2f5e4e1461047f57610234565b8063410af79d146103cf5780634494fd9f1461040e5780634707fff714610423578063496a01ad1461044057610234565b8063336eb66611610207578063336eb6661461031357806333ae0ab7146103605780633c793d49146103935780633caca5d4146103ba57610234565b8063159ea8ff1461023957806321bade131461026a578063295e0488146102d25780632e1a7d4d146102e9575b600080fd5b34801561024557600080fd5b5061024e6108c4565b604080516001600160a01b039092168252519081900360200190f35b34801561027657600080fd5b5061029d6004803603602081101561028d57600080fd5b50356001600160a01b03166108d4565b604080516001600160a01b03909616865260208601949094528484019290925260608401526080830152519081900360a00190f35b3480156102de57600080fd5b506102e7610910565b005b3480156102f557600080fd5b506102e76004803603602081101561030c57600080fd5b50356109cc565b34801561031f57600080fd5b50610328610bb8565b604051808260e080838360005b8381101561034d578181015183820152602001610335565b5050505090500191505060405180910390f35b34801561036c57600080fd5b506102e76004803603602081101561038357600080fd5b50356001600160a01b0316610bf3565b34801561039f57600080fd5b506103a8610c22565b60408051918252519081900360200190f35b3480156103c657600080fd5b50610328610c28565b3480156103db57600080fd5b506102e7600480360360608110156103f257600080fd5b506001600160a01b038135169060208101359060400135610c5e565b34801561041a57600080fd5b5061024e610db3565b6102e76004803603602081101561043957600080fd5b5035610dc2565b34801561044c57600080fd5b506102e76004803603602081101561046357600080fd5b5035610e76565b34801561047657600080fd5b506103a8610ec2565b34801561048b57600080fd5b506104b8600480360360408110156104a257600080fd5b506001600160a01b038135169060200135610ec8565b604080519115158252519081900360200190f35b3480156104d857600080fd5b506103a8610f50565b3480156104ed57600080fd5b506102e76004803603602081101561050457600080fd5b5035610f56565b34801561051757600080fd5b50610520610fa2565b604080516001600160a01b0390951685526020850193909352838301919091526060830152519081900360800190f35b34801561055c57600080fd5b506102e7610fc0565b34801561057157600080fd5b506102e76004803603602081101561058857600080fd5b50356001600160a01b0316611051565b3480156105a457600080fd5b506102e7600480360360208110156105bb57600080fd5b50356001600160a01b03166110ba565b3480156105d757600080fd5b5061024e611122565b3480156105ec57600080fd5b506104b8611131565b34801561060157600080fd5b506103a8611155565b34801561061657600080fd5b506102e76004803603602081101561062d57600080fd5b50356001600160a01b031661115b565b34801561064957600080fd5b506102e76004803603604081101561066057600080fd5b506001600160a01b03813581169160200135166111c4565b34801561068457600080fd5b506102e76004803603602081101561069b57600080fd5b8101906020810181356401000000008111156106b657600080fd5b8201836020820111156106c857600080fd5b803590602001918460208302840111640100000000831117156106ea57600080fd5b50909250905061133c565b34801561070157600080fd5b506102e76004803603602081101561071857600080fd5b50356113b9565b34801561072b57600080fd5b506104b8611405565b34801561074057600080fd5b506104b86004803603602081101561075757600080fd5b50356001600160a01b031661140a565b34801561077357600080fd5b506102e76004803603602081101561078a57600080fd5b50356001600160a01b031661150c565b3480156107a657600080fd5b506102e7600480360360208110156107bd57600080fd5b8101906020810181356401000000008111156107d857600080fd5b8201836020820111156107ea57600080fd5b8035906020019184602083028401116401000000008311171561080c57600080fd5b5090925090506115e5565b34801561082357600080fd5b506102e76004803603602081101561083a57600080fd5b50356001600160a01b0316611662565b6102e76004803603602081101561086057600080fd5b50356001600160a01b03166116b5565b34801561087c57600080fd5b506102e76004803603602081101561089357600080fd5b50356116bf565b3480156108a657600080fd5b506103a8600480360360208110156108bd57600080fd5b5035611747565b6013546001600160a01b03165b90565b6001600160a01b039081166000908152601160205260409020805460018201546002830154600384015460049094015492909416949093929190565b6013546001600160a01b031661092461175b565b6001600160a01b03161461097f576040805162461bcd60e51b815260206004820152601a60248201527f63616c6c6572206973206e6f7420746865206f70657261746f72000000000000604482015290519081900360640190fd5b60188054600090915561099061175b565b6001600160a01b03166108fc829081150290604051600060405180830381858888f193505050501580156109c8573d6000803e3d6000fd5b5050565b60155481906001600160a01b03166370a082316109e761175b565b6040518263ffffffff1660e01b815260040180826001600160a01b03166001600160a01b0316815260200191505060206040518083038186803b158015610a2d57600080fd5b505afa158015610a41573d6000803e3d6000fd5b505050506040513d6020811015610a5757600080fd5b50511015610aac576040805162461bcd60e51b815260206004820152601660248201527f616d6f756e7420657863656564732062616c616e636500000000000000000000604482015290519081900360640190fd5b6000610ad9620f4240610acd610ac061175f565b859063ffffffff61186b16565b9063ffffffff6118cb16565b601654909150610aef908263ffffffff61190d16565b601655610afa61175b565b6001600160a01b03166108fc829081150290604051600060405180830381858888f19350505050158015610b32573d6000803e3d6000fd5b506015546001600160a01b03166371c2fc9e610b4c61175b565b846040518363ffffffff1660e01b815260040180836001600160a01b03166001600160a01b0316815260200182815260200192505050600060405180830381600087803b158015610b9c57600080fd5b505af1158015610bb0573d6000803e3d6000fd5b505050505050565b610bc0611cc7565b6040805160e08101918290529060019060079082845b815481526020019060010190808311610bd6575050505050905090565b6001600160a01b03811660009081526011602052604081206003018054919055610c1d828261194f565b505050565b60175490565b610c30611cc7565b6040805160e08101918290526008805482529091600790600960208501808311610bd6575050505050905090565b6014546001600160a01b0316610c7261175b565b6001600160a01b031614610ccd576040805162461bcd60e51b815260206004820181905260248201527f63616c6c6572206973206e6f7420616c6c6f77656420746f20646f20736f6d65604482015290519081900360640190fd5b6001600160a01b038084166000908152601160205260408082205490921680825291902060020154610d05908463ffffffff6119ae16565b6001600160a01b038216600090815260116020526040902060020155610d2a81611a08565b6001600160a01b038116600090815260116020526040812060010154610d5e90606490610acd90869063ffffffff61186b16565b6001600160a01b038316600090815260116020526040902060030154909150610d8d908263ffffffff6119ae16565b6001600160a01b0390921660009081526011602052604090206003019190915550505050565b6014546001600160a01b031690565b6014546001600160a01b0316610dd661175b565b6001600160a01b031614610e31576040805162461bcd60e51b815260206004820181905260248201527f63616c6c6572206973206e6f7420616c6c6f77656420746f20646f20736f6d65604482015290519081900360640190fd5b601754601654610e59908290610e4d908563ffffffff6119ae16565b9063ffffffff61190d16565b601655601854610e6f908263ffffffff6119ae16565b6018555050565b610e7e611131565b610ebd576040805162461bcd60e51b81526020600482018190526024820152600080516020611d2d833981519152604482015290519081900360640190fd5b601755565b60165490565b6014546000906001600160a01b0316610edf61175b565b6001600160a01b031614610f3a576040805162461bcd60e51b815260206004820181905260248201527f63616c6c6572206973206e6f7420616c6c6f77656420746f20646f20736f6d65604482015290519081900360640190fd5b610f44838361194f565b50600190505b92915050565b60105490565b610f5e611131565b610f9d576040805162461bcd60e51b81526020600482018190526024820152600080516020611d2d833981519152604482015290519081900360640190fd5b600f55565b6015546016546017546018546001600160a01b039093169290919293565b610fc8611131565b611007576040805162461bcd60e51b81526020600482018190526024820152600080516020611d2d833981519152604482015290519081900360640190fd5b600080546040516001600160a01b03909116907f8be0079c531659141344cd1fd0a4f28419497f9722a3daafe3b4186f6b6457e0908390a3600080546001600160a01b0319169055565b611059611131565b611098576040805162461bcd60e51b81526020600482018190526024820152600080516020611d2d833981519152604482015290519081900360640190fd5b601480546001600160a01b0319166001600160a01b0392909216919091179055565b6110c2611131565b611101576040805162461bcd60e51b81526020600482018190526024820152600080516020611d2d833981519152604482015290519081900360640190fd5b6001600160a01b03166000908152601260205260409020805460ff19169055565b6000546001600160a01b031690565b600080546001600160a01b031661114661175b565b6001600160a01b031614905090565b600f5490565b611163611131565b6111a2576040805162461bcd60e51b81526020600482018190526024820152600080516020611d2d833981519152604482015290519081900360640190fd5b601380546001600160a01b0319166001600160a01b0392909216919091179055565b6001600160a01b038181166000908152601160205260409020541615611231576040805162461bcd60e51b815260206004820152601260248201527f416c7265616479206120726566657272616c0000000000000000000000000000604482015290519081900360640190fd5b806001600160a01b0316826001600160a01b03161415611298576040805162461bcd60e51b815260206004820152600c60248201527f73616d6520616464726573730000000000000000000000000000000000000000604482015290519081900360640190fd5b6001600160a01b0381811660009081526011602052604080822080546001600160a01b031916938616938417905591815220600401546112d99060016119ae565b6001600160a01b038084166000818152601160209081526040918290206004019490945580519182529184169281019290925280517ffaf63637882ff2d63ca76881cf92fb857130e36f350c926f9cc884b499b42b779281900390910190a15050565b611344611131565b611383576040805162461bcd60e51b81526020600482018190526024820152600080516020611d2d833981519152604482015290519081900360640190fd5b60005b6007811015610c1d5782828281811061139b57fe5b90506020020135600882600781106113af57fe5b0155600101611386565b6113c1611131565b611400576040805162461bcd60e51b81526020600482018190526024820152600080516020611d2d833981519152604482015290519081900360640190fd5b601055565b600190565b6014546000906001600160a01b031661142161175b565b6001600160a01b03161461147c576040805162461bcd60e51b815260206004820181905260248201527f63616c6c6572206973206e6f7420616c6c6f77656420746f20646f20736f6d65604482015290519081900360640190fd5b6000601054600f5411156114a95750601054600f546114a1908263ffffffff61190d16565b600f556114b4565b50600f805460009091555b6114be838261194f565b50604080516001600160a01b03851681526020810183905281517ff4602bf74bc0808c000ea3c3531aa0628829c00ef77831486ca770d12832d99c929181900390910190a150600192915050565b611514611131565b611553576040805162461bcd60e51b81526020600482018190526024820152600080516020611d2d833981519152604482015290519081900360640190fd5b6001600160a01b03811660009081526012602052604090205460ff16156115c1576040805162461bcd60e51b815260206004820152600d60248201527f616c726561647920616464656400000000000000000000000000000000000000604482015290519081900360640190fd5b6001600160a01b03166000908152601260205260409020805460ff19166001179055565b6115ed611131565b61162c576040805162461bcd60e51b81526020600482018190526024820152600080516020611d2d833981519152604482015290519081900360640190fd5b60005b6007811015610c1d5782828281811061164457fe5b905060200201356001826007811061165857fe5b015560010161162f565b61166a611131565b6116a9576040805162461bcd60e51b81526020600482018190526024820152600080516020611d2d833981519152604482015290519081900360640190fd5b6116b281611a80565b50565b6116b28134611b20565b6014546001600160a01b03166116d361175b565b6001600160a01b03161461172e576040805162461bcd60e51b815260206004820181905260248201527f63616c6c6572206973206e6f7420616c6c6f77656420746f20646f20736f6d65604482015290519081900360640190fd5b600f54611741908263ffffffff6119ae16565b600f5550565b6000610f4a620f4240610acd610ac061175f565b3390565b601554604080516318160ddd60e01b815290516000926001600160a01b0316916318160ddd916004808301926020929190829003018186803b1580156117a457600080fd5b505afa1580156117b8573d6000803e3d6000fd5b505050506040513d60208110156117ce57600080fd5b50516117de5750620f42406108d1565b601554604080516318160ddd60e01b81529051611866926001600160a01b0316916318160ddd916004808301926020929190829003018186803b15801561182457600080fd5b505afa158015611838573d6000803e3d6000fd5b505050506040513d602081101561184e57600080fd5b5051601654610acd90620f424063ffffffff61186b16565b905090565b60008261187a57506000610f4a565b8282028284828161188757fe5b04146118c45760405162461bcd60e51b8152600401808060200182810382526021815260200180611d0c6021913960400191505060405180910390fd5b9392505050565b60006118c483836040518060400160405280601a81526020017f536166654d6174683a206469766973696f6e206279207a65726f000000000000815250611bcb565b60006118c483836040518060400160405280601e81526020017f536166654d6174683a207375627472616374696f6e206f766572666c6f770000815250611c6d565b6000303182111561196257506000610f4a565b601654611975908363ffffffff61190d16565b6016556040516001600160a01b0384169083156108fc029084906000818181858888f19350505050158015610f44573d6000803e3d6000fd5b6000828201838110156118c4576040805162461bcd60e51b815260206004820152601b60248201527f536166654d6174683a206164646974696f6e206f766572666c6f770000000000604482015290519081900360640190fd5b6000805b6007811015611a60576001600160a01b03831660009081526011602052604090206002015460018260078110611a3e57fe5b01541015611a585760088160078110611a5357fe5b015491505b600101611a0c565b506001600160a01b03909116600090815260116020526040902060010155565b6001600160a01b038116611ac55760405162461bcd60e51b8152600401808060200182810382526026815260200180611ce66026913960400191505060405180910390fd5b600080546040516001600160a01b03808516939216917f8be0079c531659141344cd1fd0a4f28419497f9722a3daafe3b4186f6b6457e091a3600080546001600160a01b0319166001600160a01b0392909216919091179055565b6000611b40611b2d61175f565b610acd84620f424063ffffffff61186b16565b601654909150611b56908363ffffffff6119ae16565b601655601554604080516340c10f1960e01b81526001600160a01b03868116600483015260248201859052915191909216916340c10f1991604480830192600092919082900301818387803b158015611bae57600080fd5b505af1158015611bc2573d6000803e3d6000fd5b50505050505050565b60008183611c575760405162461bcd60e51b81526004018080602001828103825283818151815260200191508051906020019080838360005b83811015611c1c578181015183820152602001611c04565b50505050905090810190601f168015611c495780820380516001836020036101000a031916815260200191505b509250505060405180910390fd5b506000838581611c6357fe5b0495945050505050565b60008184841115611cbf5760405162461bcd60e51b8152602060048201818152835160248401528351909283926044909101919085019080838360008315611c1c578181015183820152602001611c04565b505050900390565b6040518060e00160405280600790602082028038833950919291505056fe4f776e61626c653a206e6577206f776e657220697320746865207a65726f2061646472657373536166654d6174683a206d756c7469706c69636174696f6e206f766572666c6f774f776e61626c653a2063616c6c6572206973206e6f7420746865206f776e6572a265627a7a723158209984566c18c714bf6a77a4de213d5ea131c6270f771e8aa88b2d54ae14c2757864736f6c634300050c0032",
  "linkReferences": {},
  "deployedLinkReferences": {}
}